:100000000C9438050C9469050C9469050C946905E9
:100010000C9469050C9469050C9469050C946905A8
:100020000C9469050C9469050C9469050C94690598
:100030000C9469050C9469050C9469050C94690588
:100040000C9469050C9469050C9469050C94690578
:100050000C9469050C9469050C9469050C94B526FB
:100060000C9469050C9429270C94FF260C946905BF
:100070000C9469050C9469050C9469050C94690548
:100080000C9469050C9469050C9469050C94690538
:100090000C9469050C9469050C9469050C945F2710
:1000A0000C9469050C9469050C9469050C94690518
:1000B0000C9469050C9469050C9469050C94690508
:1000C0000C9469050C9469050C9469050C946905F8
:1000D0000C9469050C9469050C9469050C946905E8
:1000E0000C9469050C9438150C9437290C94F70678
:1000F0000C94D3050C9404150C94D5060C940113A0
:100100000C948D1D0C94E4050C94F50C0C94651D59
:100110000C9454150C9404060C946D150C945E15F7
:100120000C947C070C94B8050C944A0B0C940D1598
:100130000C940A060C9414130C94CD070C94060D21
:100140000C942F070C94B4190C943E0C0C944A1583
:100150000C94EE050C94CF050C9487050C949F1518
:100160000C94BC0C0C9477150C9468290C94FC0529
:100170000C94C6060C94830C0C94091D0C94401529
:100180000C9453290C948B150C9499060C94AA2961
:100190000C94120D0C941C150C9448130C943E08EE
:1001A0000C9465290C94E8050C9450290C942810A3
:1001B0000C94F60C0C94D7050C94F2120C941215B6
:1001C0000C94B1260C94250D0C94B3190C94301595
:1001D0000C94F6050C94DE050C94A90B0C940E06F9
:1001E0000C9486050C94BD050C941E0D0C944629A8
:1001F0000C94F2050C94780A0C946C290C94261536
:100200000C9400060C94E9060C94A4150C9481152A
:100210000C94210C0C9495150C94DB050C941B1379
:10022000CDCCCC3D0AD7233C17B7D13877CC2B3275
:100230009595E6241FB14F0A000020410000C842F6
:1002400000401C4620BCBE4CCA1B0E5AAEC59D7455
:100250007D002C22646973706C61795F6C696E65D6
:1002600073223A5B002C22646973706C61795F635E
:1002700068616E6E656C223A0066616C736500742D
:10028000727565002C22646973706C61795F6D6FA3
:100290006465223A002C2270616765223A002C22A4
:1002A00070776D5F726177223A002C2270776D5FF4
:1002B00070657263656E74223A002C22696E7465F3
:1002C00067726174696F6E5F74696D65223A002CA4
:1002D000226761696E223A0066616C736500747210
:1002E0007565002C226361706162696C697469656F
:1002F00073223A5B2270776D5F636F6E74726F6CFE
:10030000225D2C226175746F5F70616765223A000F
:100310007B2274797065223A227374617465222C91
:1003200022646576696365223A22757063682D6D73
:100330006567612D617337333431222C2270726FFF
:10034000746F636F6C223A322C226669726D77612A
:100350007265223A22322E332E30222C2273656EA1
:10036000736F725F7265616479223A007D007B224F
:1003700074797065223A2261636B222C22636F6D5F
:100380006D616E64223A007D007B22747970652273
:100390003A226572726F72222C22636F6465223A70
:1003A0000000000000003E5B4F5B3E3E6B4F6B3E2B
:1003B0001C3E7C3E1C183C7E3C181C577D571C1C68
:1003C0005E7F5E1C00183C1800FFE7C3E7FF0018C3
:1003D000241800FFE7DBE7FF30483A060E262979AC
:1003E0002926407F050507407F05253F5A3CE73C0D
:1003F0005A7F3E1C1C08081C1C3E7F14227F2214BE
:100400005F5F005F5F06097F017F006689956A6014
:100410006060606094A2FFA29408047E040810202B
:100420007E201008082A1C08081C2A08081E101024
:1004300010100C1E0C1E0C30383E3830060E3E0ECE
:1004400006000000000000005F0000000700070039
:10045000147F147F14242A7F2A122313086462361F
:10046000495620500008070300001C2241000041AB
:10047000221C002A1C7F1C2A08083E0808008070E5
:100480003000080808080800006060002010080418
:10049000023E5149453E00427F400072494949466B
:1004A0002141494D331814127F1027454545393CE9
:1004B0004A494931412111090736494949364649D6
:1004C00049291E00001400000040340000000814F8
:1004D0002241141414141400412214080201590971
:1004E000063E415D594E7C1211127C7F49494936C6
:1004F0003E414141227F4141413E7F494949417F3F
:10050000090909013E414151737F0808087F0041F4
:100510007F41002040413F017F081422417F40403D
:1005200040407F021C027F7F0408107F3E41414112
:100530003E7F090909063E4151215E7F091929467E
:10054000264949493203017F01033F4040403F1F94
:100550002040201F3F4038403F63140814630304C9
:100560007804036159494D43007F41414102040829
:100570001020004141417F040201020440404040FC
:1005800040000307080020545478407F2844443832
:100590003844444428384444287F3854545418007C
:1005A000087E090218A4A49C787F080404780044FB
:1005B0007D40002040403D007F1028440000417FE6
:1005C00040007C047804787C08040478384444446F
:1005D00038FC1824241818242418FC7C0804040867
:1005E000485454542404043F44243C4040207C1C80
:1005F0002040201C3C4030403C44281028444C9073
:1006000090907C4464544C440008364100000077CC
:100610000000004136080002010204023C262326A5
:100620003C1EA1A161123A4040207A3854545559D9
:10063000215555794122545478422155547840200F
:10064000545579400C1E527212395555555939542A
:1006500054545939555454580000457C41000245C2
:100660007D420001457C407D1211127DF028252835
:10067000F07C545545002054547C547C0A097F4931
:1006800032494949323A4444443A324A4848303A75
:100690004141217A3A42402078009DA0A07D3D4210
:1006A00042423D3D4040403D3C24FF2424487E4999
:1006B00043662B2FFC2F2BFF0929F620C0887E09CB
:1006C0000320545479410000447D413048484A3267
:1006D000384040227A007A0A0A727D0D19317D264F
:1006E00029292F28262929292630484D4020380835
:1006F00008080808080808382F10C8ACBA2F1028B6
:1007000034FA00007B000008142A142222142A1450
:10071000085500550055AA55AA55AAFF55FF55FF83
:10072000000000FF00101010FF00141414FF001050
:1007300010FF00FF1010F010F0141414FC0014143B
:10074000F700FF0000FF00FF1414F404FC1414175A
:10075000101F10101F101F1414141F00101010F081
:10076000000000001F101010101F10101010F010CB
:10077000000000FF101010101010101010FF1000DB
:100780000000FF140000FF00FF00001F1017000012
:10079000FC04F414141710171414F404F40000FFEC
:1007A00000F714141414141414F700F71414141785
:1007B0001410101F101F141414F4141010F010F063
:1007C00000001F101F0000001F14000000FC140098
:1007D00000F010F01010FF10FF141414FF1410108C
:1007E000101F00000000F010FFFFFFFFFFF0F0F00F
:1007F000F0F0FFFFFF0000000000FFFF0F0F0F0FE2
:100800000F3844443844FC4A4A4A347E0202060601
:10081000027E027E0263554941633844443C0440F1
:100820007E201E2006027E020299A5E7A5991C2AB9
:10083000492A1C4C7201724C304A4D4D3030487878
:100840004830BC625A463D3E494949007E0101019B
:100850007E2A2A2A2A2A44445F444440514A44407A
:1008600040444A51400000FF0103E080FF000008BF
:10087000086B6B083612362436060F090F06000087
:1008800018180000001010003040FF0101001F0187
:10089000011E00191D1712003C3C3C3C00000000EA
:1008A000005D7D002C22646973706C61795F6C69F6
:1008B0006E6573223A5B002C22646973706C6179F7
:1008C0005F6368616E6E656C223A002C2264697306
:1008D000706C61795F6D6F6465223A007D2C2263D4
:1008E0006170747572655F6964223A002C226368D6
:1008F000616E6E656C73223A7B002C2270616765B5
:10090000223A002C2270776D5F726177223A002CB8
:100910002270776D5F70657263656E74223A002C89
:1009200022696E746567726174696F6E5F74696D58
:1009300065223A002C226761696E223A002C226DF2
:10094000696C6C6973223A007B2274797065223A73
:100950002274656C656D65747279222C22736571E1
:1009600075656E6365223A000000210024002700AF
:100970002A002D00300033000101000004010701AE
:100980000A0100002200250028002B002E00310063
:10099000340002010000050108010B0105050505F1
:1009A000070508080808020202020A0A08080404E7
:1009B0000404010101010101010103030303030315
:1009C0000303040707070C0C0C0C0C0C0C0C0202A4
:1009D000020206060606060606060B0B0B0B0B0BA1
:1009E0000B0B01021020200808102040102040802E
:1009F00002010201080402010102040810204080E3
:100A00008040201008040201800402018040201070
:100A100008040201080402010102040810204080B9
:100A2000010204081020408000000A0B02090C0D8E
:100A30000E08070304010000000000000000000091
:100A400000000000000000000000000000000000A6
:100A50000000000012111000000000000000000063
:100A60000000000000000000000000000000AA29B3
:100A700011241FBECFEFD1E2DEBFCDBF00E00CBF1F
:100A800017E0A0E0B2E0EAEEFDE600E00BBF02C036
:100A900007900D92A639B107D9F72EE0A6E9B7E085
:100AA00001C01D92AB37B207E1F715E0C8E3D5E00E
:100AB00000E006C021970109802FFE010E94A931A4
:100AC000C733D10780E00807A9F70E946C2A0C946D
:100AD000F3360C940000CF93DF93EC018881998169
:100AE000DC01ED91FC910190F081E02D64E270E079
:100AF0001995009741F02FE1FC01238321E0228327
:100B0000DF91CF91089521E02A83FACF08950895C7
:100B1000282F30E0F901E85DF54F9491F901EE518D
:100B2000F64F44912456364FF9012491222309F4BB
:100B300035C0992311F191509231F8F4E92FF0E08A
:100B40008827EA55FA4F8F4F0C94A931D705DB055A
:100B5000B805CF05D305BD05DE05E405E805EE05BE
:100B6000F205F605FC050006BD0504060A060E069C
:100B7000809180008F7780938000E22FF0E0EE0F6D
:100B8000FF1FEE57F64FA591B4918FB7F894EC91F3
:100B9000611148C040954E234C938FBF08958091BA
:100BA00080008F7DE8CF80918000877FE4CF84B57F
:100BB0008F7784BDE2CF84B58F7DFBCF8091B0006D
:100BC0008F778093B000D9CF8091B0008F7DF9CF1F
:100BD000809190008F7780939000CFCF809190008C
:100BE0008F7DF9CF80919000877FF5CF8091A00015
:100BF0008F778093A000C1CF8091A0008F7DF9CF27
:100C00008091A000877FF5CF809120018F7780931E
:100C10002001B3CF809120018F7DF9CF80912001F9
:100C2000877FF5CF4E2BB8CFCF93DF9390E0FC01B9
:100C3000EE51F64F24918456964FFC0184918823FF
:100C4000D1F090E0880F991FFC01E859F64FA5916B
:100C5000B491FC01EE57F64FC591D49161110EC0CD
:100C60009FB7F8948C91E22FE0958E238C93288186
:100C7000E223E8839FBFDF91CF9108958FB7F89467
:100C8000EC91E22BEC938FBFF6CF8230910538F0D8
:100C9000880F991F880F991F05970197F1F70895FD
:100CA0003FB7F8948091270990912809A0912909CC
:100CB000B0912A0926B5A89B05C02F3F19F00196CF
:100CC000A11DB11D3FBFBA2FA92F982F8827BC01A6
:100CD000CD01620F711D811D911D42E0660F771FCE
:100CE000881F991F4A95D1F70895CF92DF92EF920E
:100CF000FF920E9450066B017C010E9450066C1905
:100D00007D098E099F09683E734081059105A8F30E
:100D1000FF90EF90DF90CF9008952FB7F8946091F7
:100D200023097091240980912509909126092FBFEC
:100D30000895AF92BF92CF92DF92EF92FF920F93FE
:100D40001F93CF93DF936C017B018B01040F151F61
:100D5000EB015E01AE18BF08C017D10759F06991C9
:100D6000D601ED91FC910190F081E02DC60119951D
:100D7000892B79F7C501DF91CF911F910F91FF90DA
:100D8000EF90DF90CF90BF90AF900895FC01538D0E
:100D9000448D252F30E0842F90E0821B930B541755
:100DA00010F0CF96089501970895FC01918D828DE2
:100DB000981761F0A28DAE0FBF2FB11D5D968C917B
:100DC000928D9F5F9F73928F90E008958FEF9FEFBA
:100DD0000895FC01918D828D981731F0828DE80F76
:100DE000F11D858D90E008958FEF9FEF0895FC0130
:100DF000918D228D892F90E0805C9F4F821B9109FD
:100E00008F739927089581E899E00E94F70621E001
:100E1000892B09F420E0822F0895FC01A48DA80FEE
:100E2000B92FB11DA35ABF4F2C91848D90E001962C
:100E30008F739927848FA689B7892C93A089B1894C
:100E40008C91837080648C93938D848D981306C0ED
:100E50000288F389E02D80818F7D80830895EF9251
:100E6000FF920F931F93CF93DF93EC0181E0888F64
:100E70009B8D8C8D98131AC0E889F989808185FF34
:100E800015C09FB7F894EE89FF896083E889F989D6
:100E900080818370806480839FBF81E090E0DF91D8
:100EA000CF911F910F91FF90EF900895F62E0B8D2B
:100EB00010E00F5F1F4F0F731127E02E8C8D8E11E6
:100EC0000CC00FB607FCFACFE889F989808185FF4D
:100ED000F5CFCE010E940D07F1CFEB8DEC0FFD2F6A
:100EE000F11DE35AFF4FF0829FB7F8940B8FEA8908
:100EF000FB8980818062CFCFCF93DF93EC01888D17
:100F00008823B9F0AA89BB89E889F9898C9185FD84
:100F100003C0808186FD0DC00FB607FCF7CF8C9112
:100F200085FFF2CF808185FFEDCFCE010E940D07B6
:100F3000E9CFDF91CF91089580E090E0892B29F0EF
:100F40000E94030781110E94000080E090E0892B3D
:100F500049F080E090E0892B29F00E940000811187
:100F60000E94000080E090E0892B49F080E090E052
:100F7000892B29F00E94000081110E94000080E06E
:100F800090E0892B49F080E090E0892B29F00E94C5
:100F9000000081110C9400000895FC0177FD55C0FC
:100FA00080859185681779070CF04FC057FD4DC0BB
:100FB00082859385481759070CF047C0868982308F
:100FC00009F444C0833009F44EC0813031F48FE21B
:100FD00090E0861B970BBA01AC01842FA62F93A13A
:100FE000691708F4962F93A394A19A1708F49A2FDF
:100FF00094A395A1891708F4982F95A396A1981703
:1010000008F4982F96A3CA0157FD0796E3E095953B
:101010008795EA95E1F7A4E5A89FF001A99FF00D57
:101020001124E60FF71FEA5FFD4FCA0168E070E088
:101030000E94733141E050E001C0440F8A95EAF705
:101040008081232BB9F0842B8083089583E590E081
:10105000DC01A61BB70BBD018FE290E0DC01A41BF5
:10106000B50BAD01BACF83E590E0841B950BAB01C6
:10107000BC01B3CF40958423E7CF0895FC01637092
:10108000668B8481958126813781613039F06330A8
:1010900029F09187808733872287089531872087B9
:1010A0009387828708952F923F924F925F926F921B
:1010B0007F928F929F92AF92BF92CF92DF92EF92E8
:1010C000FF920F931F93CF93DF93CDB7DEB76A974D
:1010D0000FB6F894DEBF0FBECDBF9A8F898F7A838B
:1010E00069834A01D22E18870F833701BC2CDC019B
:1010F00059962D913C915A972115310509F015C14A
:1011000018968D919C911997681779070CF0D7C1A3
:101110001A968D919C91481759070CF0D0C14C2C10
:10112000512CB6E0CB9E600D711D11247C876B871E
:10113000161617060CF0C3C1EA2DF0E0FA87E9870E
:1011400093E0EE0FFF1F9A95E1F7F88BEF87CF0141
:10115000840F951F181619060CF0B1C1A98DBA8D10
:1011600058968C91811104C0BFEABD1508F4D39440
:10117000A98DBA8DED91FC9111970284F385E02D34
:10118000CD011995B5E0DB9EC0011124E981FA81FA
:10119000FC83EB83312C212C9C012F553C4F388F45
:1011A0002F8B4A2D50E05E8B4D8BEF89F88DE20D31
:1011B000F31D44919E828D82D12CC12C69817A814C
:1011C000620D731D7A8B698B842F90E09C8B8B8BC7
:1011D000E98DFA8DA081B18140FF82C0F1E0BF129C
:1011E0006FC0AF126DC01C96ED91FC912F813885B8
:1011F000A4014C0D5D1D69897A89898D9A8D199597
:10120000EB89FC89F595E7954E2F5FEFC51AD50A56
:101210006D817E818D899E89680F791F7E836D83A4
:1012200098E0C916D10481F6AFEF2A1A3A0AEB8189
:10123000FC81E40DF51DFC83EB83F5E02F163104F2
:1012400009F0B3CF2F81388526153705B9F0A98D60
:10125000BA8DED91FC91B1E0BB1257C0AB1255C0F5
:1012600069817A816B5F7F4F0088F189E02D83016E
:1012700028E030E0A401898D9A8D1995A98DBA8D49
:10128000ED91FC9111970688F789E02DCD016A96C2
:101290000FB6F894DEBF0FBECDBFDF91CF911F9187
:1012A0000F91FF90EF90DF90CF90BF90AF909F9005
:1012B0008F907F906F905F904F903F902F901994F8
:1012C0001E96ED91FC91EF80F88409851A859201B4
:1012D0004D815E816B817C81898D9A8D199590CF2E
:1012E0002F8138852615370509F48ACF31E0B312EE
:1012F00007C0A31205C01C96ED91FC91930178CF15
:101300001E96ED91FC917301E0CF6B857C8564198D
:1013100075090684F785E02D73010F851889920100
:10132000A401898D9A8D1995A9CFF90134969491CC
:10133000329745915491D91AB7E0DB9E400D511D6B
:101340001124F901259134913C8B2B8BFA012590C6
:101350003490FA013296749031963491398B3296EA
:1013600064903196449041E04C1518F04A1508F00D
:101370007FC0662D062C000C770B7C836B83842D3D
:10138000042C000C990B9E838D83A98DBA8DED9151
:10139000FC9111970284F385E02DCD011995512C14
:1013A000D12CC12CEA2DF0E0FA87E9872B2D30E013
:1013B0003C872B87A401440D511D47FC5A95588F3B
:1013C0004F8B69817A81660D711D67FC7A957E87E6
:1013D0006D877989C71608F051CF2C2D30E04D81EB
:1013E0005E81420F531FA985BA854A9FC0014B9F5A
:1013F000900D5A9F900D1124FC01E80DF91DF88BFA
:10140000EF87852D612C4F89588D420F531F5E8BBE
:101410004D8B671408F050C044244394480E8770E5
:1014200041F4C1010196EB89FC89E20DF31DD490D2
:101430001C01D7FE19C0A98DBA8DED91FC91662DC6
:1014400070E0B1E0BB1219C0AB1217C02D853E850C
:10145000620F731F0484F585E02D2F8138854D8937
:101460005E89898D9A8D1995DD0C6394842DD1CF79
:101470001E821D821C821B8288CF4B815C81640F7F
:10148000751FAB85BC856A9FC0016B9F900D7A9FCD
:10149000900D112469817A81680F791F0684F78580
:1014A000E02DEF80F88409851A859D014F855889C4
:1014B000898D9A8D1995D8CF570CC3948ACF6A9687
:1014C0000FB6F894DEBF0FBECDBFDF91CF911F9155
:1014D0000F91FF90EF90DF90CF90BF90AF909F90D3
:1014E0008F907F906F905F904F903F902F900895D6
:1014F0008F929F92AF92CF92EF92FF920F931F9392
:10150000CF93DF93EC01262F898D9A8D009709F0F8
:1015100051C06A30D1F41D861C868D8948E0849FB5
:10152000900111248E859F85820F931F9F878E8740
:1015300081E090E0DF91CF911F910F91FF90EF90AC
:10154000CF90AF909F908F9008956D3089F3CC88A5
:10155000AD888F898823C1F08C859D8536E0C39E38
:10156000800D911D1124488559854817590764F449
:101570004E855F851D861C8638E0A39EC001112420
:10158000840F951F9F878E87EA88FB8808891989B1
:101590004E855F856C857D85CE010E9453082C8920
:1015A0008C859D8546E0249F800D911D11249D878B
:1015B0008C87BECF6A3069F41D861C86FC01389684
:1015C000E4912D898E859F85E29F800D911D1124C8
:1015D000ADCF6D3009F4ACCFFC0134963491631774
:1015E00008F4A6CF3296E491E61708F4A1CFFC01E7
:1015F000329685909490462F431B342F47E0349FBA
:10160000800C911C1124F401329634913196E491AE
:101610003323A9F1EE2399F1CC88F4013596E491B6
:10162000AD884F89442301F10E2E000CFF0BE30F10
:10163000F11DCE9EA001CF9E500D11246C857D859D
:10164000460F571F68857985641775076CF44E85BA
:101650005F851D861C86FC013896E491AE9E400D88
:10166000511D11245F874E87EA88FB8808891989F4
:101670004E855F856C857D85CE010E945308F401FF
:101680003496E4912C898C859D85E29F800D911D77
:1016900011248DCF6F927F928F929F92AF92BF92C3
:1016A000CF92DF92EF92FF920F931F93CF93DF932E
:1016B000EC016B015A0139014801E881F98102848A
:1016C000F385E02D1995E881F9810288F389E02DF1
:1016D00087019301A501B601CE011995A501480D19
:1016E000591D41505109E881F9810288F389E02DA3
:1016F0009301B601CE011995E881F9810088F1893D
:10170000E02D9401A501B601CE011995C60CD71C98
:10171000B60161507109E881F9810088F189E02DF5
:101720009401A501CE011995E881F9810688F78910
:10173000E02DCE01DF91CF911F910F91FF90EF909F
:10174000DF90CF90BF90AF909F908F907F906F90E1
:1017500019946F927F928F929F92AF92BF92CF9285
:10176000DF92EF92FF920F931F93CF93DF935C0171
:10177000EB016A01490138018701DC01ED91FC911F
:101780006217730719F5641675062CF0962D872DD0
:101790003A01C92ED82E9601261937092F5F3F4FDF
:1017A000048CF58DE02DA301BE01C5011995DF91D3
:1017B000CF911F910F91FF90EF90DF90CF90BF904E
:1017C000AF909F908F907F906F900895461557052A
:1017D00091F42617370724F0892D4B01C22FD82FFB
:1017E0009E01281939092F5F3F4F068CF78DE02D98
:1017F000A601B401DACF0284F385E02D1995D50155
:10180000ED91FC910488F589E02D83019401A601F6
:10181000BE01C5011995D501ED91FC910688F789A6
:10182000E02DC501DF91CF911F910F91FF90EF90B7
:10183000DF90CF90BF90AF909F908F907F906F90F0
:101840001994EF92FF920F931F93DC011A960D915A
:101850001C911B9718962D913C911997ED91FC9135
:1018600000A0F1A1E02D7B0150E040E070E060E0DD
:1018700019951F910F91FF90EF9008954F925F92ED
:101880006F927F928F929F92AF92BF92CF92DF9290
:10189000EF92FF920F931F93CF93DF936C012B0175
:1018A0005A0139014801DC01ED91FC910284F38574
:1018B000E02D1995E201640C751CD601ED91FC91A7
:1018C000C615D7055CF40088F189E02D87019401E5
:1018D000A501BE01C60119952196EFCF0688F789AB
:1018E000E02DC601DF91CF911F910F91FF90EF90F6
:1018F000DF90CF90BF90AF909F908F907F906F9030
:101900005F904F9019948F929F92AF92BF92CF9217
:10191000DF92EF92FF920F931F93CF93DF93EC012F
:101920005B014A016901E881F9810284F385E02DB8
:10193000199595012C0D3D1D21503109E881F98142
:101940000488F589E02D78018401A401B501CE0158
:101950001995E881F9810688F789E02DCE01DF919C
:10196000CF911F910F91FF90EF90DF90CF90BF909C
:10197000AF909F908F9019948F929F92AF92BF9249
:10198000CF92DF92EF92FF920F931F93CF93DF934B
:10199000EC015B014A0169017801E881F981028467
:1019A000F385E02D1995C80CD91C86010150110949
:1019B000E881F9810488F589E02D9501A401B5013C
:1019C000CE011995E881F9810688F789E02DCE01CD
:1019D000DF91CF911F910F91FF90EF90DF90CF900B
:1019E000BF90AF909F908F9019940895EF92FF92BF
:1019F0000F931F93DC01ED91FC9100A0F1A1E02D6C
:101A000019951F910F91FF90EF9008950F931F93D9
:101A1000DC01ED91FC91068CF78DE02D19951F915D
:101A20000F9108950F931F93DC01ED91FC91048CAD
:101A3000F58DE02D19951F910F910895DC01ED9121
:101A4000FC910084F185E02D19942F923F924F92E2
:101A50005F926F927F928F929F92AF92BF92CF923E
:101A6000DF92EF92FF920F931F93CF93DF9300D0FB
:101A700000D0CDB7DEB73C016A013E832D83FC82E6
:101A8000EB825801A41AB50AB7FE03C0B194A19421
:101A9000B1088D809E80861A970A97FE03C09194A4
:101AA000819491088A149B045CF0902F812F0D8102
:101AB0001E819D838E839C2D8D2D6B01692F782F28
:101AC0000C151D055CF09D818E817E836D83692FD1
:101AD000782F902F812F8601C92ED82E1601201A1B
:101AE000310A2B012D813E81421A530A57FE03C051
:101AF000519441945108710137FE03C03FEFE31A3E
:101B0000F30AF594E7948D819E81861797075CF51B
:101B1000A1E0B0E0BA83A983C016D1064CF1D3018D
:101B2000ED91FC910484F585E02D2B813C81A80189
:101B30006D817E818A149B041CF04D815E81B80109
:101B4000C3011995E418F508F7FE0AC02D813E81FE
:101B500089819A81280F391F3E832D83E20CF31C63
:101B60000F5F1F4FD9CF2FEF3FEF3A832983D4CF99
:101B700026960FB6F894DEBF0FBECDBFDF91CF9192
:101B80001F910F91FF90EF90DF90CF90BF90AF909B
:101B90009F908F907F906F905F904F903F902F908D
:101BA0000895FC0183858F3F19F061E00C9488054E
:101BB0000895FC0180819181892B39F0A281B38144
:101BC0009C9111968C919CBD8DBD83858F3F19F0A2
:101BD00060E00C9488050895BF92CF92DF92EF9257
:101BE000FF920F931F93CF93DF93EC01888199812C
:101BF000892B81F06EBD0DB407FEFDCF0EB5802F91
:101C0000DF91CF911F910F91FF90EF90DF90CF90D8
:101C1000BF9008958885998511E0892B09F010E817
:101C2000BB24B394862F812309F0B12CF62E2C818E
:101C30003D814E815F8160E271EA87E090E00E9421
:101C40008731E22E00E0C22ED12CEE2019F0C60121
:101C50000E9445068A85982F977F09F044C08D859C
:101C60008F3F89F09F2D912381E009F480E08B154F
:101C700051F0EF85F8898F89992379F19081892B2B
:101C80008083BB24B394E989FA898081998D892B5B
:101C90008083EE2019F0C6010E9445068E858F3F95
:101CA00039F0EB89FC898081988D892309F0012B1B
:101CB000E989FA899081898D809589238083888537
:101CC0009985892B09F067C0110F1111BECF8E8540
:101CD0008F3F09F094CF0F2D92CF9081809589236B
:101CE0008083B12CD0CF8C3099F58D858F3F49F012
:101CF000EF85F8898F899F2D912331F19081892B70
:101D00008083E989FA899081898D809589238083F0
:101D1000EE2019F0C6010E944506E989FA89808102
:101D2000998D892B8083EE2019F0C6010E9445060B
:101D30008E858F3F21F2EB89FC898081988D8923E4
:101D400009F4BDCF012BBBCF908180958923D8CFDB
:101D5000E989FA898081998D892B8083EE2019F099
:101D6000C6010E9445068D858F3F49F0EF85F889B1
:101D70008F899F2D912359F09081892B8083E98948
:101D8000FA899081898D809589238083D1CF908134
:101D900080958923F3CF169598CF8F929F92AF921B
:101DA000BF92CF92DF92EF92FF920F931F93CF9348
:101DB000DF937C014B016A01B22EA32E0E94D90D44
:101DC000E401C80CD91CCC15DD0569F4CB2DDA2D46
:101DD0000C0F1D1FC017D10759F06FEFC7010E94EC
:101DE000EC0D8993F7CF6991C7010E94EC0DEBCF01
:101DF000C7010E94D10D81E0DF91CF911F910F911A
:101E0000FF90EF90DF90CF90BF90AF909F908F901A
:101E100008958F929F92AF92BF92CF92DF92EF92EE
:101E2000FF920F931F93CF93DF937C01B62EA72EC3
:101E30006A0149010E94D90DE401080D191DC0175E
:101E4000D10761F4CB2DDA2DCC0EDD1ECC15DD05CE
:101E500051F06991C7010E94EC0DF8CF6991C7015B
:101E60000E94EC0DECCFC7010E94D10D81E0DF9103
:101E7000CF911F910F91FF90EF90DF90CF90BF9087
:101E8000AF909F908F900895EF92FF920F931F93C2
:101E9000CF93DF931F92CDB7DEB77C01698360E0FB
:101EA000FC01868D0E94880510E000E030E020E013
:101EB00041E050E0BE016F5F7F4FF701838D948D4D
:101EC0000E94090F0F90DF91CF911F910F91FF900A
:101ED000EF900895CF93C82F87FDCFE7C093690A8D
:101EE00061E28AE49AE00E94440F6C2F60688AE401
:101EF0009AE00E94440F60E28AE49AE0CF910C9449
:101F0000440FCF938091670A87FD0FC061E00E9464
:101F1000140660E08091670A0E9488050E94750699
:101F200061E08091670A0E948805C0916A0AC83002
:101F300008F0C7E0C0936A0A61E28AE49AE00E946E
:101F4000440F6C2F60618AE49AE00E94440F60E2C3
:101F50008AE49AE00E94440F8091690A0E946A0F05
:101F600060E28AE49AE00E94440F6CE08AE49AE01E
:101F7000CF910C94440FEF92FF920F931F93CF9346
:101F8000DF9390916B0A992341F080916C0A8F5FE7
:101F9000891708F042C080936C0AD0916F0AD695D9
:101FA000D695D69584E5D89F700111248091700A4A
:101FB0008695869586958D17A8F16D2F60648AE4C5
:101FC0009AE00E94440FC0916D0A10916E0A6C2F26
:101FD00060688AE49AE00E94440F61E08091680A98
:101FE0000E948805412F50E06C2F70E0461B570B74
:101FF0004F5F5F4F6E0D7F1D6A5F7D4F10E000E009
:1020000030E020E08091650A9091660A0E94090FF5
:10201000DF5F84E5E80EF11CC9CF10926C0A0E94C4
:10202000810FBBCF60E48AE49AE00E94440F83E50D
:1020300080936D0A10926E0A8FE280936F0A10925D
:10204000700ADF91CF911F910F91FF90EF9008954B
:102050001F93CF93DF93EC01162F60E20E94440F91
:102060006CE011116DE0CE01DF91CF911F910C94C6
:10207000440F20913808260F3327331F21323105B2
:10208000ECF420915709FC0190E080E0243069F0E5
:1020900082E00895A09138082191AC01485E574F25
:1020A000A40FB52FB11D2C930196861798F380913C
:1020B0003808680F6093380880E0089581E008953B
:1020C0001092570981E0809356091092310961E01E
:1020D00084E10E94880561E085E10E948805E9EBC2
:1020E000F0E080818E7F808380818D7F808388E493
:1020F0008093B80085E48093BC0008951092300965
:1021000010922F0910925E09109280090E946010AF
:1021100086E895E090932E0980932D0987E895E055
:1021200090932C0980932B090895CF93DF9391E02E
:102130009093D8088823B9F0C091B800D091BA0024
:102140008091BC008A7B8093BC0060E084E10E94A7
:10215000880560E085E10E9488050E946010D093A8
:10216000BA00C093B800DF91CF9108958F929F92EB
:10217000AF92BF92CF92DF92EF92FF920F931F9395
:10218000CF93DF93D0918009D13208F0D7C0182FB8
:10219000C0917F090E9450066B017C018091570914
:1021A00081116BC082E080935709109356098FEF1D
:1021B0008093550910925409D0935309AFE5B9E0C3
:1021C000E3E3F9E080E0D81391C0109232098091E6
:1021D0003209CC0FC82BC09332098091310981306C
:1021E00009F088C0109231090E9450066B017C01F1
:1021F000809132098093BB008091590990915A09CE
:10220000A0915B09B0915C09892B8A2B8B2BA1F0E3
:102210000E9450060091590910915A0920915B09BA
:1022200030915C096C197D098E099F090617170703
:102230002807390708F442C08091BC0083FDD8CF3D
:1022400085EC8093BC000E9450066B017C0180915C
:102250005709823009F450C0809155098F3F09F425
:102260006FC080915509803209F46CC08091550986
:10227000803309F469C084E026C0809159099091A7
:102280005A09A0915B09B0915C09892B8A2B8B2B91
:1022900009F484CF0E9450068090590990905A0901
:1022A000A0905B09B0905C096C197D098E099F09AB
:1022B00086169706A806B90608F070CF80915809CF
:1022C0000E94951085E010925E091092800910928C
:1022D0005D09DF91CF911F910F91FF90EF90DF90FB
:1022E000CF90BF90AF909F908F9008959D919193C4
:1022F0008F5F69CF85EEA5CF8091590990915A09DA
:10230000A0915B09B0915C09892B8A2B8B2B09F476
:102310009ECF0E9450060091590910915A092091B0
:102320005B0930915C096C197D098E099F090617BC
:1023300017072807390708F08ACFC0CF81E0C3CF3D
:1023400080E0C1CF82E0BFCF83E0BDCF1F93CF93AA
:10235000DF93EA01122FDC0111968D919C91DC0133
:10236000ED91FC910280F381E02D1995C817D907F2
:1023700029F4812F0E94B61091E0811190E0892FFD
:10238000DF91CF911F910895AF92BF92CF92DF92CC
:10239000EF92FF920F931F93CF93DF931F921F92A1
:1023A000CDB7DEB7DC01211103C01A962C911A9724
:1023B000253008F043C051964D935D936D937C9307
:1023C000549790E080E0E22EF12C8E159F05B4F436
:1023D0001C962C911C9721110AC0FD01E80FF91FD2
:1023E0004587452F562F672F77270196EECFF701A8
:1023F000E81BF90BEA0FFB1F4487F3CF6D018DE05B
:10240000C80ED11C18969C91189719968C91199703
:1024100099838A83AD90BC901197A114B10409F4FB
:1024200041C01B960C9110E098012E0D3F1DD50167
:1024300014968D919C918217930710F480E016C03A
:10244000F50181819281208131E030935D092093F3
:102450007F0910925E09109280090115110599F407
:1024600021E0A701B601C5010E94A6110F900F90AF
:10247000DF91CF911F910F91FF90EF90DF90CF9060
:10248000BF90AF900895DC01ED91FC910280F38143
:10249000E02DA801BE016F5F7F4F1995081719073E
:1024A00069F6DECF1296ED91FC911397309749F1C2
:1024B00016962D913C9117971B960C9110E02330A6
:1024C000310571F48E7F89839A830F5F1F4F9E01C0
:1024D0002F5F3F4FA701B601CF010E94090FC6CF62
:1024E0002115310519F49F779983F1CF22303105F9
:1024F00011F49068F9CF2130310549F79F77906446
:10250000F3CF1496ED91FC911597309709F496CF7F
:102510008085882309F492CFA680B780A114B104E6
:1025200009F48CCF870196011B964C91BE016F5F19
:102530007F4F81859285F501199598CFCF93DF93D1
:10254000CDB7DEB765970FB6F894DEBF0FBECDBF2F
:1025500020912D0A30912E0A1A8A1B8A1C8A1D8A04
:102560003A8329831C821B8221E02C8790E09A8782
:1025700089871D862B87462F50E070E060E020E0C1
:10258000CE0101960E94C41165960FB6F894DEBF85
:102590000FBECDBFDF91CF910895CF93DF93EC01B4
:1025A0008B818823A1F0888191E090935D098093CD
:1025B0007F0910925E091092800981E00E94B61096
:1025C00091E0811190E0892FDF91CF9108950E94D1
:1025D0007E1081E08B83CE010E94CD12982F811155
:1025E000E2CFF1CFE091300980912F09E81730F464
:1025F000F0E0E55AF74F808190E008958FEF9FEF6C
:1026000008959091300980912F092FEF3FEF98178F
:1026100048F4E92FF0E0E55AF74F208130E09F5F62
:1026200090933009C901089580912F099091300944
:10263000891B990B0895CF92DF92EF92FF920F932F
:102640001F93CF93DF937C01CB018A0120915D0919
:10265000222389F0EB016B01C40ED51ECC15DD05DC
:1026600069F06991D701ED91FC910190F081E02D25
:10267000C7011995F3CF642F0E943910C801DF916B
:10268000CF911F910F91FF90EF90DF90CF90089521
:10269000CF93DF931F92CDB7DEB7698320915D0999
:1026A0002223F9F020918009203258F021E030E017
:1026B000FC013383228390E080E00F90DF91CF9183
:1026C000089580915E09E82FF0E0E15AF64F998174
:1026D00090838F5F80935E098093800981E090E012
:1026E000ECCF61E0CE0101960E943910F7CF6F3F29
:1026F000A9F0E62FE295EF7044E0E49F90011124E9
:10270000DC01ED91FC91E20FF31F6F7082819381E8
:10271000B6E06B9F800D911D1124089590E080E03C
:102720000895009749F0FC0194818CEF890F823065
:1027300028F081E0923019F080E0089581E008955A
:10274000982F80336CF08A3324F08F3524F08B3748
:1027500024F481E0089581341CF081E09B350CF075
:1027600080E00895FC01828581110AC0A781B085AF
:10277000CD010196908787838C91818781E0828744
:10278000818508951F93CF93DF93EC01162F0E944C
:10279000B213811306C01A8681E0DF91CF911F9199
:1027A000089580E0FACF0F931F93CF93DF938C01AE
:1027B000EB018991882369F0C8010E94B213882334
:1027C00079F0FE013197908198130DC0F8011286BF
:1027D000F0CF90E080E0DF91CF911F910F910895AD
:1027E00082E090E0F8CF83E090E0F5CFCF93DF93E5
:1027F000EC01CE010E94B2138B304CF489305CF4B2
:10280000882359F081E08E8390E080E00BC08D300A
:1028100011F08032B9F71A86ECCF8E81811105C094
:1028200081E090E0DF91CF91089582E090E0FACFCF
:10283000DC0152969C915297915084E0989F9001B0
:1028400011245096ED91FC91E20FF31F2281338108
:102850002115310579F041818081481758F481E0D4
:10286000840F818386E0489F200D311D112421159E
:10287000310521F460E070E08FEF0895B901892FF0
:102880008295807F840F0895DF92EF92FF920F93DD
:102890001F93CF93DF93EC017B01D12C6889798959
:1028A0008A89D816E0F484E0D89E80011124060FAE
:1028B000171FD80112966D917C916115710541F039
:1028C000D701ED91FC910280F381E02DC7011995AC
:1028D000F8011382128210821182D394DFCF1A8AF8
:1028E0008FEF8C8BC617D70761F0D701ED91FC9164
:1028F0000280F381E02DC7011995D98BC88B84E044
:102900008B8BDF91CF911F910F91FF90EF90DF9014
:102910000895CF93DF93CDB7DEB765970FB6F894E0
:10292000DEBF0FBECDBF94E0899FF0011124EE5BA6
:10293000FB4F4281538180912D0A90912E0A1A8A71
:102940001B8A1C8A1D8A9A8389831C821B8281E0D0
:102950008C872AEA30E03A8729871D868B8770E0CA
:1029600060E020E0CE0101960E94C41165960FB68A
:10297000F894DEBF0FBECDBFDF91CF9108950F93C6
:102980001F93CF93DF93809102022FEF829FC001AC
:102990001124C29664E670E00E945F318B01EB0166
:1029A000DD2761E08BE00E941406209741F460E08F
:1029B0008BE0DF91CF911F910F910C948805CF3F51
:1029C000D10511F461E0F4CFE3E3FAE0E491E150E2
:1029D000E23108F0B4C0F0E08827EE50FB4E8F4F94
:1029E0000C94A93104150D1512151C1526159F15EB
:1029F0003015381540154A1554155E156D157715A7
:102A00009F1581158B15951584B5806884BD07BD0C
:102A1000DF91CF911F910F91089584B5806284BD9D
:102A200008BDF6CF80918000806880938000D093AD
:102A30008900C0938800ECCF8091800080628093F1
:102A40008000D0938B00C0938A00E2CF80918000F9
:102A5000886080938000D0938D00C0938C00D8CF85
:102A60008091B00080688093B0000093B300D0CF15
:102A70008091B00080628093B0000093B400C8CF12
:102A800080919000806880939000D0939900C093CB
:102A90009800BECF80919000806280939000D09388
:102AA0009B00C0939A00B4CF80919000886080937F
:102AB0009000D0939D00C0939C00AACF8091A0006D
:102AC00080688093A0008091A0008F7B8093A000FD
:102AD000D093A900C093A8009BCF8091A0008062F2
:102AE0008093A000D093AB00C093AA0091CF8091B7
:102AF000A00088608093A000D093AD00C093AC008C
:102B000087CF80912001806880932001D093290194
:102B1000C09328017DCF80912001806280932001A5
:102B2000D0932B01C0932A0173CF8091200188603C
:102B300080932001D0932D01C0932C0169CFC03820
:102B4000D1050CF03FCF33CFFC01EC5FFB4F208170
:102B50003181211544E0340760F4A9014F5F5F4FD4
:102B600051834083820F931FFC01648381E090E0D6
:102B7000089590E080E00895682F81E79AE00C9432
:102B8000A4150F931F93CF93DF938C01D0E0C0E087
:102B9000F801EC0FFD1F6491662341F081E79AE094
:102BA0000E94A415892B11F02196F2CFCE01DF915E
:102BB000CF911F910F9108954F925F926F927F92E4
:102BC0008F929F92AF92BF92CF92DF92EF92FF923D
:102BD0000F931F93CF93DF9300D01F921F92CDB717
:102BE000DEB7DC012C912B32E1F12D32D9F50196C3
:102BF000EE24E394FC01208130ED320F3A3010F0E6
:102C00002E3291F58C0160E070E0CB01F80121914A
:102C100030ED832E820E39E0381508F444C06A394D
:102C200049E97407840749E1940708F046C0AAE01F
:102C3000B0E09B01AC010E94B131912CB12CA12CD0
:102C400024013501409450946094709446165706C0
:102C50006806790690F1680D791D8A1D9B1D8F010C
:102C6000D5CF0196E12CC6CF198229813A814B81BB
:102C70005C816D8170E080E090E00F900F900F908C
:102C80000F900F90DF91CF911F910F91FF90EF90D8
:102C9000DF90CF90BF90AF909F908F907F906F907C
:102CA0005F904F900895211108C0EE2051F16130DE
:102CB0007105810550E89507A0F0F12CBAE08B2E44
:102CC000912CA12CB12C6115710530E88307910579
:102CD000F8F0A50194010E948731CA01B901F3946B
:102CE000F2CF22E029839B01AC0188279927DC01E0
:102CF000821B930BA40BB50B8A839B83AC83BD8390
:102D0000B4CF23E029836A837B838C839D83ADCFFB
:102D1000F801D8012D918D0130ED320F3A3010F4C9
:102D2000F394F6CF2E3201F58F010F5F1F4FF8019C
:102D30000F5F1F4F2081A0EDDA2ED20EB9E0BD1536
:102D400098F06C3CECEC7E07ECE08E07910578F790
:102D5000AAE0B0E09B01AC010E94B1316D0D711D84
:102D6000811D911DFA94E3CF20812F7D10E000E0BA
:102D7000253409F050C021812D32B1F53296CC2492
:102D8000C394DF0110E000E02F2D0F2C000C330B5B
:102D9000EAE0BE2EFD01DD9040ED4D0D4A30B0F56C
:102DA000B09EA001B19E500D11240D2DDD0C110B14
:102DB00000531109040F151FA801420F531F47327A
:102DC000510544F3CC20B9F080E090E0A0E0B0E8F9
:102DD000E11003C080E090E0DC0121E029838A83D8
:102DE0009B83AC83BD8341CF2B3219F03196C12C2C
:102DF000C8CF3296FCCF80E090E0A0E8BFEFE110B2
:102E0000ECCF80E090E0A0E8BFE7E7CFCC2019F05E
:102E10001195019511092081211126CF0F0D111D4A
:102E2000F7FC1A950E943B3048E3A42E42E0B42EF2
:102E3000101611063CF011950195110950E2A52ECE
:102E400052E0B52ED12CC12C01151105E9F0F6E0A8
:102E5000CF16D104A9F000FF0DC0F601EE0FFF1F41
:102E6000EE0FFF1FEA0DFB1D259135914591549101
:102E70000E94CA30159507952FEFC21AD20AE4CFE7
:102E800060E070E080EC9FE7E110905821E029833A
:102E90006A837B838C839D83E8CECF92DF92EF920F
:102EA000FF920F931F93CF93DF937C016B018A01F5
:102EB000FC01C081D1814F3F510509F0B0F4E88198
:102EC000F9810480F581E02D4B5F5F4FCE011995AC
:102ED000009759F0FC010383DF91CF911F910F916F
:102EE000FF90EF90DF90CF900895E881F981028004
:102EF000F381E02DB601CE01199581E0F7018283BF
:102F000090E080E0E9CF1F93CF93DF93EC01162F81
:102F10006A817B816115710589F04C815D81FB01BE
:102F200083818417150651F4440F551F4F5F5F4F7F
:102F3000888199810E944D179B838A838A819B8116
:102F4000009759F02C813D81A9014F5F5F4F5D8350
:102F50004C83820F931FFC011483DF91CF911F914B
:102F600008959F92AF92BF92CF92DF92EF92FF921D
:102F70000F931F93CF93DF9300D01F921F92CDB773
:102F8000DEB78C010E94B213D82EF8011286F12C04
:102F9000E12C60EFC62EC8010E94B213F801128620
:102FA000D81609F4B3C0811113C082E090E00F90ED
:102FB0000F900F900F900F90DF91CF911F910F9175
:102FC000FF90EF90DF90CF90BF90AF909F900895CB
:102FD0008C3509F099C0C8010E94B213882329F3E7
:102FE000EEEEF4E0853709F083C0F801128654E074
:102FF000952EB12CA12CC8010E94B2138823A9F2EE
:10300000813434F48053803130F083E090E0CFCFCE
:103010008F7D8753F8CF44E0AA0CBB1C4A95E1F79B
:10302000A82AF80112869A949110E5CFC501985DFF
:103030008115944020F47501F3E0FF22ACCFC50167
:103040009C5D81159440A8F483E0B822B701762FE7
:103050006627770F770F6A297B2990E080E0019639
:10306000603871058105910540F4C8010E948317FD
:1030700092CFB50190E080E0F3CF1982262F2F7315
:1030800020682A8326E096958795779567952A95F7
:10309000D1F76032710580F4606C6B835E01E4E00F
:1030A000AE0EB11CF50162915F01662309F473CF86
:1030B000C8010E948317F6CF262F2F7320682B8319
:1030C00086E0769567958A95E1F76031710538F469
:1030D000606E6C835E01F5E0AF0EB11CE3CF6068FB
:1030E0006C83CD825E0126E0A20EB11CDBCF32964E
:1030F0009081992309F489CF8913F9CF818188239D
:1031000009F483CFF8011286682FAFCF82819381B3
:10311000892B19F484E090E04ACF90E080E047CF1B
:103120006F927F928F929F92AF92BF92CF92DF92D7
:10313000EF92FF920F931F93CF93DF93EC012A81BD
:103140003B812C5F3F4F4C815D814430510588F5B8
:103150008901F90180E0942FB22FAE2FA21BA9178D
:1031600030F4F190A1E0F110A0E08A2BF6CF8111AC
:1031700020C082E0EB018C83FB01802F8B1B891721
:1031800028F4E80189918E018193F7CF640F751FB0
:10319000FB011082DF91CF911F910F91FF90EF9073
:1031A000DF90CF90BF90AF909F908F907F906F9067
:1031B00008958B01F901E40FF51F10828881998130
:1031C0004C815D81DC011396ED91FC913A01E8940C
:1031D00077F86901C60CD71C3097C1F0A381A615FA
:1031E000170481F449017F01B4E0EB0EF11C8C144B
:1031F0009D0429F1D401AD904D01D701BD907D0111
:10320000AB14A9F30190F081E02DE6CF6A817B81B8
:103210000E944D17FC01A881B98113968D919C9154
:103220001497918380831496FC93EE9313971B82DB
:103230001A8285E0E8018C83F983E883ABCF828131
:103240008F5F8283F6CFDB01ED91FC9111970280B5
:10325000F381E02DBC01CD011994AF92BF92CF92C2
:10326000DF92EF92FF920F931F93CF93DF93EC01C6
:103270008B018C8180FF24C0A881B981FB018381EF
:10328000948130E020E00097D9F0A817B907D1F574
:10329000F8016081718112968C911297815012967B
:1032A0008C93129781110CC08D919C9111972115CF
:1032B000310529F1F90191838083CD010E94231901
:1032C0008C81807631F1209721F1F8805801F5E169
:1032D000AF0EB11C8FEFF816D1F06F2DC5010E9413
:1032E00077136C01FC01E580B8010E942D19F801EB
:1032F000818DF6018083F801F18EFE2CEBCF948353
:103300008383DBCF9C01FC0180819181BCCFF8825B
:10331000F9821C82DF91CF911F910F91FF90EF9066
:10332000DF90CF90BF90AF9008950F931F93CF93EE
:10333000DF93EC01088119818B819C81009749F012
:10334000FC01208131813C832B83B8010E94231929
:10335000F3CF68817981CE010596DF91CF911F91DE
:103360000F910C944414089590E080E008952F92FA
:103370003F924F925F926F927F928F929F92AF9205
:10338000BF92CF92DF92EF92FF920F931F93CF9352
:10339000DF9300D01F92CDB7DEB7DC014B01042FC5
:1033A00018969C91189719968C91199799838A83EE
:1033B0002D903C9011972114310409F43AC11B96C9
:1033C0004C9150E0D10114968D919C9184179507F2
:1033D000C8F4D12C8D2D0F900F900F900F90DF918E
:1033E000CF911F910F91FF90EF90DF90CF90BF9002
:1033F000AF909F908F907F906F905F904F903F9095
:103400002F900895F101808191E090935D09809360
:103410007F0910925E091092800920E0BE016F5F63
:103420007F4FC1010E94A611D82E882391F2802FD0
:1034300090E09C838B83B12CA12C01E0AB81BC81FB
:10344000AA16BB0638F6F101848195817D01EA1840
:10345000FB088E159F0508F47C01D101CC900E94D9
:1034600050062B013C0180915709811172C01E2D1D
:10347000113208F010E20093570921E08B819C8102
:103480008E199F09A816B90608F420E02093560962
:10349000BFEFB0935509109254098FEF810F8093BD
:1034A00053090093320980913209CC0CC82AC0928A
:1034B000320980913109813009F092C010923109AE
:1034C0000E9450062B013C01809132098093BB0081
:1034D0008091590990915A09A0915B09B0915C09BA
:1034E000892B8A2B8B2BA1F00E9450062091590921
:1034F00030915A0940915B0950915C096419750932
:1035000086099709261737074807590708F442C064
:103510008091BC0083FDD8CFE5ECE093BC000E9415
:1035200050062B013C0180915709813009F45CC0A1
:1035300080915409811710F410915409A3E3B9E064
:10354000EBE5F8E080E0811751F19D9191938F5F59
:10355000FACF8091590990915A09A0915B09B091D5
:103560005C09892B8A2B8B2B09F47DCF0E94500696
:103570002091590930915A0940915B0950915C0999
:1035800064197509860997092617370748075907E7
:1035900008F069CF809158090E94951010E01092B0
:1035A000300910932F091E151F0409F012CF3401A2
:1035B0006A0C7B1C2301C201861997098E159F0591
:1035C000A8F5D10111968D919C91DC01ED91FC91B2
:1035D0000284F385E02D1995F20181932F01EBCF41
:1035E000F5EEF093BC009BCF8091590990915A0958
:1035F000A0915B09B0915C09892B8A2B8B2B09F474
:1036000092CF0E9450062091590930915A09409159
:103610005B0950915C096419750986099709261799
:1036200037074807590708F07ECFB4CFAE0CBF1C50
:1036300005CF1296ED91FC911397309749F11696AC
:103640002D913C91179710E01B964C9150E0233040
:10365000310571F4816089839A834F5F5F4F9401D4
:10366000BE016F5F7F4FCF010E94CD0ED82EB2CE2C
:103670002115310519F490689983F1CF2230310575
:1036800011F49F77F9CF2130310549F7906CF4CFD1
:103690001496ED91FC911597309709F49ACE808598
:1036A000882309F496CEE480F580E114F10409F44E
:1036B00090CE10E09B011B964C91BE016F5F7F4F37
:1036C00081859285F7011995D1CFCF93DF93EC01D6
:1036D000BC01635F7F4F4A850E94B719882301F1BF
:1036E0004A8550E030E020E060E070E0CB01241734
:1036F0003507CCF4982F872F762F6627EC85E111BC
:103700000AC0FA01E21BF30BEC0FFD1FE4856E2BE0
:103710002F5F3F4FECCFFE01E20FF31FE585F7CFA0
:103720006FEF7FEFCB01DF91CF910895EF92FF9282
:103730001F93CF93DF93CDB7DEB765970FB6F8949D
:10374000DEBF0FBECDBF11E083EAE82EF12C8091E1
:103750002D0A90912E0A1A8A1B8A1C8A1D8A9A8326
:1037600089831C821B821C87FA86E9861D861B873B
:10377000CE0101960E94651B66FD03C00E9475067E
:10378000E6CF65960FB6F894DEBF0FBECDBFDF91D2
:10379000CF911F91FF90EF9008958F929F92AF92DB
:1037A000BF92CF92DF92EF92FF920F931F93CF932E
:1037B000DF93EC014A015B01888199810E94651BBE
:1037C0002A8101E010E002C0000F111F2A95E2F7E4
:1037D00001501109012E000C220B330BAB81680143
:1037E00079010A2E04C0CC0CDD1CEE1CFF1C0A94CF
:1037F000D2F7C094D094E094F094C622D722E82265
:10380000F922E881F981B901A801482159216A21E9
:103810007B2104C0440F551F661F771FAA95D2F75E
:103820004C295D296E297F292285CF01DF91CF9117
:103830001F910F91FF90EF90DF90CF90BF90AF90CE
:103840009F908F900C94C411CF93DF93CDB7DEB7C8
:1038500069970FB6F894DEBF0FBECDBF20912D0A39
:1038600030912E0A1A8A1B8A1C8A1D8A3A83298360
:103870001C821B8291E09C8720E830E03A872987F0
:103880001D869B879E012F5F3F4F3F8B2E8B988F0E
:10389000998F482F50E070E060E0CE0146960E947C
:1038A000CD1B69960FB6F894DEBF0FBECDBFDF917A
:1038B000CF910895DF92EF92FF920F931F93CF93D2
:1038C000DF93CDB7DEB769970FB6F894DEBF0FBEB2
:1038D000CDBF80912D0A90912E0A1A8A1B8A1C8ACC
:1038E0001D8A9A8389831C821B8281E08C8720E851
:1038F00030E03A8729871D868B879E012F5F3F4FD7
:103900003F8B2E8B888F84E0898F41E050E060E010
:1039100070E0CE0146960E94CD1BD82E10E000E04C
:10392000EE24E394F12C8E899F890E94651BAB01E4
:10393000BC01888D970102C0220F331F8A95E2F7E0
:10394000C9010197092E000CAA0BBB0B298D04C0DD
:1039500076956795579547952A95D2F784239523B1
:10396000A623B723892B8A2B8B2B49F0083E33E003
:10397000130741F00E9475060F5F1F4FD4CF083E1A
:10398000134009F4D12C8D2D69960FB6F894DEBF43
:103990000FBECDBFDF91CF911F910F91FF90EF90A0
:1039A000DF900895CF93DF93CDB7DEB769970FB659
:1039B000F894DEBF0FBECDBF80912D0A90912E0AE4
:1039C0001A8A1B8A1C8A1D8A9A8389831C821B82FD
:1039D00081E08C872FEA30E03A8729871D868B8724
:1039E000CE0101969F8B8E8B82E0888F83E0898F3A
:1039F00042E050E060E070E0CE0146960E94CD1BB0
:103A000069960FB6F894DEBF0FBECDBFDF91CF91A0
:103A10000895EF92FF921F93CF93DF93CDB7DEB758
:103A2000AE970FB6F894DEBF0FBECDBF7C01FC0190
:103A3000838194811FA218A619A61AA69F8B8E8B2C
:103A4000198E188E11E019A382E990E09F8F8E8F56
:103A50001AA218A3CE0146960E94651B6C7F772799
:103A600088279927643271058105910561F5F70171
:103A7000838194811A8A1B8A1C8A1D8A9A8389836E
:103A80001C821B821C8780E890E09A8789871D86AC
:103A90001B87CE0101969CA78BA71DA71EA641E000
:103AA00050E060E070E08A960E94CD1B81E0AE9607
:103AB0000FB6F894DEBF0FBECDBFDF91CF911F913F
:103AC000FF90EF90089580E0F2CFCB010C94CB31C2
:103AD000E6E0F2E088EF91E0DF019C011D922150C9
:103AE0003040E1F710926D0A80916E0A833508F438
:103AF00083E580936E0A10926F0A8091700A8F326C
:103B000008F48FE28093700A1092570A1092560AB6
:103B10001092590A1092580A0895CB010C946732FA
:103B20000E94D133FB0101900020E9F73197AF01EA
:103B3000461B570BDC01ED91FC910280F381E02DD7
:103B40001994CF93DF930E94C115EC0161E075E0F9
:103B500081E79AE00E94921D8C0F9D1FDF91CF910B
:103B600008958F929F92AF92BF920F931F93CF931E
:103B7000DF93CDB7DEB7A1970FB6F894DEBF0FBEC7
:103B8000CDBF19A2423008F44AE08E010F5D1F4FED
:103B9000842E912CB12CA12CA50194010E94873177
:103BA000E62FB901CA01EA3004F5E05DD801EE93D1
:103BB0008D01232B242B252B79F790E080E01097A3
:103BC00029F0BD0181E79AE00E94921DA1960FB6EF
:103BD000F894DEBF0FBECDBFDF91CF911F910F9143
:103BE000BF90AF909F908F900895E95CDFCF682FD2
:103BF00070E090E080E04AE00C94B11DCF92DF923B
:103C0000EF92FF920F931F93CF93DF93CDB7DEB761
:103C10002C970FB6F894DEBF0FBECDBF0E94681D73
:103C200081E080935E0A80935F0A81E090E0909348
:103C30005D0A80935C0A90935B0A80935A0A8CE039
:103C4000E4E0F4E0DE01119601900D928A95E1F72F
:103C50001092610A8E010F5F1F4F8EE7C82E88E019
:103C6000D82EF12CE12CF801619171918F01C601E0
:103C70000E94FA331092570A1092560AF092590A8B
:103C8000E092580AB6018AE49AE00E94921DFFE091
:103C9000CF0ED11C88E0E80EF11CE0E3EE16F10433
:103CA00011F72C960FB6F894DEBF0FBECDBFDF9193
:103CB000CF911F910F91FF90EF90DF90CF900C94D8
:103CC000BB0FCF93DF93EC0182E20E94BC152097DB
:103CD00029F0BE0181E79AE00E94921D82E2DF9105
:103CE000CF910C94BC15CF93DF93EC0189E893E05E
:103CF0000E94C115CE010E94611E87E893E0DF910A
:103D0000CF910C94A11D0F931F93CF9380E193E06B
:103D10000E94C11580912109811184C088ED92E033
:103D20000E94C11583EE92E00E94C11580910502A8
:103D300081117BC089E792E00E94C1158FEC92E06F
:103D40000E94C115E091030224E0E29FF0011124DA
:103D5000EE5BFB4F808191810E94611E8AEB92E0B5
:103D60000E94C115E091040285E0E89FF001112452
:103D7000E259FB4F808191810E94611E8AEA92E0A4
:103D80000E94C115809102020E94F71D8EE992E007
:103D90000E94C115809102022FEF829FC001112461
:103DA000C29664E670E00E945F31862F0E94F71D84
:103DB00085E992E00E94C1158091F5080E94F71DE7
:103DC00084E892E00E94C11580917D08811130C085
:103DD00083E495E00E94611E85E692E00E94C11591
:103DE000E0917C08F0E0EE0FFF1FE65EFB4F808164
:103DF00091810E94611E82E592E00E94C1150EE74A
:103E000018E0C0E0C8010E94611ECF5FC63099F47F
:103E10008DE50E94BC1580E592E0CF911F910F9136
:103E20000C94A11D8EED92E07BCF8FE792E084CFC2
:103E300085EE95E0CFCF8CE20E94BC15015F1F4F4D
:103E4000E1CFFC0184818430B1F0853049F18230CA
:103E500079F530E020E0309749F0DF010D90002047
:103E6000E9F79D01215031092E1B3F0BBF01C9010C
:103E70009F779F7708950190F081E02D30E020E05A
:103E8000309749F0DF010D900020E9F79D012150A6
:103E900031092E1B3F0BBF01C9019F779068089520
:103EA00080819181FC01238130E00496BC01DFCF49
:103EB00060E070E080E090E0F1CFBF92CF92DF92BF
:103EC000EF92FF920F931F93CF93DF93D62EC72EBF
:103ED0008A01452B09F442C0E9016596FC01608125
:103EE000CE010E947713FF24FA94009711F0FC0191
:103EF000F580EE24E394BB24B394009779F1EE208F
:103F0000B1F00E94211F2D2D3C2D3F77AC015F7732
:103F10002417350761F4D801E62FF72F200F311F42
:103F20002A173B0771F09D9181919817C9F3EB24F3
:103F30006F2DCE010E9477130097F9F2FC01F580F6
:103F4000DCCF6F2DCE01DF91CF911F910F91FF90AC
:103F5000EF90DF90CF90BF900C94771390E080E0CB
:103F6000DF91CF911F910F91FF90EF90DF90CF9055
:103F7000BF900895FC0120813181C9014A96428198
:103F8000538164817581009759F0D9015E96EC9157
:103F9000E03211F090E080E0009711F00C945D1F8A
:103FA00090E080E008950E94BA1F009721F00E94DF
:103FB000211FCB01089590E080E0089585ED809366
:103FC000BC008091590990915A09A0915B09B09168
:103FD0005C090796A11DB11D23E0B695A79597959D
:103FE00087952A95D1F72091BC0024FD03C010923B
:103FF000570908954091590950915A0960915B09F8
:1040000070915C09452B462B472B69F30097A1055E
:10401000B10541F02AE22A95F1F700C00197A10904
:10402000B109E1CF809158090C949510BF92CF92BD
:10403000DF92EF92FF920F931F93CF93DF93EC01E8
:10404000198D1F3F81F0612F45960E947713FC0167
:104050008081898F309709F477C014828FEF858330
:10406000BF01812F76C06C0135E0C30ED11CE88002
:10407000F9808F89882341F0C6010E941814E62F29
:10408000F72F182F309749F71F89988D191324C0DF
:10409000103109F459C0110F6D897E89D701ED9156
:1040A000FC91B4E01B9FA0011124C616D70609F0AD
:1040B00044C00190F081E02DBA01C7011995009725
:1040C00009F442C020E1F601DC0101900D922A952D
:1040D000E1F79E8B8D8B188F0D891E898F8921E0CA
:1040E000280F2F8BE4E08E9FC0011124080F191FA9
:1040F00090E1B92E203111F48FE0B82EF6E0BF9E8A
:10410000B0011124D701ED91FC910190F081E02DD7
:10411000C7011995F80193838283892B09F4B12C87
:10412000D801BC9211961C92012B71F0C6010E941D
:104130001814E62FF72F182F8DCF0480F581E02D6E
:10414000C7011995009729F681E08A8360E070E045
:104150008FEFDF91CF911F910F91FF90EF90DF9044
:10416000CF90BF9008954F925F926F927F928F92FF
:104170009F92AF92BF92CF92DF92EF92FF920F93F6
:104180001F93CF93DF9300D01F921F92CDB7DEB75E
:104190008C017B01742E0E94F6136C01892B09F0AF
:1041A00046C0C8010E94B213863609F4A6C114F5B0
:1041B000873229F08B3551F1823209F0A7C1F8011D
:1041C0001582148282819381892B49F480819181A7
:1041D0000E946B05D80113969C938E931297C80189
:1041E0000E94B1176C01892B11F5B701C8010E941B
:1041F00090181DC0843709F461C18B3709F47BC066
:104200008E3609F083C164E575E05FC180E4D701B3
:1042100014968C931497E114F10421F08FEF8C9392
:1042200011968C9371101AC025E0C22ED12CC601B4
:104230000F900F900F900F900F90DF91CF911F91E3
:104240000F91FF90EF90DF90CF90BF90AF909F9035
:104250008F907F906F905F904F900895F801128635
:10426000C8010E94F613009751F56DE5C8010E9440
:10427000C2138111DCCF7A94D8011B968D909C904B
:10428000C4010E941620682E5B01672B21F494E084
:10429000C92ED12CCCCFF70161816F3F91F0C401C1
:1042A00045960E947713DC0115966C92F7016182A6
:1042B000472DB501C8010E94B320009739F06C0169
:1042C000B6CFD7018C9311968C93F2CFC8010E9480
:1042D000F6130097A1F76DE5C8010E94C213811182
:1042E000A6CF6CE2C8010E94C2138111C5CF83E042
:1042F000C82ED12C9CCF80E2F7018483E114F10415
:1043000019F08FEF80838183772009F48DCFD80156
:104310001A961C92C8010E94F613009781F66DE769
:10432000C8010E94C213811182CF7A94F8011582CC
:10433000148282819381892B49F4808191810E942A
:104340006B05D80113969C938E931297C8010E9417
:10435000B2138732F9F08232E9F0C8010E94B21339
:10436000D82E0E94A013882311F2F80112866D2D19
:10437000C8010E948317C8010E94B213D82E0E9460
:10438000A0138111F2CFD80112968D919C91892BA7
:1043900041F47DCFC8010E94B1176C01892B09F04F
:1043A00046CFC8010E94F6136C01892B09F03FCF5C
:1043B0006AE3C8010E94C213882309F498CFD80188
:1043C0001296ED91FC91139714968D919C911597EF
:1043D000E80FF91F148214966D917C9115977F77E1
:1043E0001B962D913C911C9712968D919C91049651
:1043F000472F4F77B62DB0786B2E642AE89467F874
:10440000AC01762DC7010E945D1F6C01F801838409
:104410009484009759F5C4010E941620482E5B0130
:10442000672B09F434CFC4010E941620582E962F12
:10443000C92ED72EC114D10409F429CFD501159660
:104440005C92F70161816F3F71F0C40145960E9453
:104450007713DC0115964C92F7015182B501C80122
:104460000E94901806C040825182F8CFB4010E9489
:104470002D19472DB601C8010E94B3206C01892B6C
:1044800009F0D5CEC8010E94F6136C01892B09F002
:10449000CECE6DE7C8010E94C2138111C8CE6CE276
:1044A000C8010E94C213882309F421CFC8010E94C9
:1044B000F6136C01892B09F439CFB9CE86E0F701E8
:1044C000848381E0808369E475E0C8010F900F90D8
:1044D0000F900F900F90DF91CF911F910F91FF9050
:1044E000EF90DF90CF90BF90AF909F908F907F9094
:1044F0006F905F904F900C94D31386E0D701149681
:104500008C9314971C926EE475E0DFCFC8010E9473
:10451000B2134801BDE08B0E911CB12C782CA92C54
:10452000803384F08A3384F4EFE3BE16A9F0D80117
:104530001A961C92B394F40181934F01C8010E9412
:10454000B213EECF8B3281F393ED980F923060F37C
:10455000982F9F7D953441F30B0D111DD8011D96A9
:104560001C92872D9A2D0E94DC153A834B835C8325
:104570006D838A819B81AC81BD812230A9F023307B
:1045800059F0213009F0B3CE2EE0F7012483808367
:104590009183A283B3834BCE2AE0F70124838083E7
:1045A0009183A283B38343CE2CE0F7CF3F924F9207
:1045B0005F926F927F928F929F92AF92BF92CF92B3
:1045C000DF92EF92FF920F931F93CF93DF93CDB7BC
:1045D000DEB7CB57D1090FB6F894DEBF0FBECDBF03
:1045E00081E899E00E94C6060091750E1091760E42
:1045F0008017910708F48C0101151105C1F0A8017D
:1046000065E77AE081E899E00E9499064091750E8D
:104610005091760E401B510B5093760E4093750EC1
:10462000B8016B58754F85E79AE00E94DF338E0121
:10463000025B1F4F280125E0420E511CC8014A961B
:10464000EC969FAF8EAFEC97B9E66B2EB5E07B2E64
:1046500086E7C82E85E0D82E81E899E00E94F7060B
:10466000181619060CF064C38091750E9091760EA1
:10467000E0E0F4E0E81BF90BCF018835924008F444
:1046800057C381E899E00E94D506909117089923B5
:1046900029F08A3009F710921708DECFE09116084A
:1046A0008A3009F02BC3AE2FB0E0AA56B84F1C9247
:1046B000EE23A1F0E6E9F7E040E0912C30E020E0C5
:1046C00081918823A1F1992361F08032C9F38B7F16
:1046D0008930B1F389E595E00E94731E10921608A7
:1046E000BBCF992059F0411118C08C35C9F09924DD
:1046F0009394823209F4912C90E0E2CF823299F0C7
:104700008F7D8B3519F42F5F3F4FF6CF8D35A1F795
:104710002150310991E0A1F2EFCF942E40E0D0CFAB
:10472000942F492DCDCF992D99249394C9CF9923B6
:1047300089F29110CFCF20E032E0F801318320835D
:10474000128214821382568A458A178A84E0808FE7
:104750008FEF818F168E878FB901C2010E9444149A
:10476000F8011282E080F180F80183819481009742
:1047700051F0FC0120813181F80134832383B7019A
:104780000E942319F1CF168E1A8309831C821B8283
:104790001E821D821F8226E937E0398728871B8603
:1047A0001D870C874AE0EC966EAD7FADEC97CE018D
:1047B00001960E94B3207C01892B51F48A858823BD
:1047C00039F0F801868D83FF03C0A3E0EA2EF12CB7
:1047D0008B819C81009731F0E981FA816081718140
:1047E0000E942319EF2829F089E595E00E94731EA5
:1047F0000AC1F801868D8032B9F7E6961FAF0EAF79
:10480000E697E8967FAE6EAEE897F4E0FF2EE99665
:10481000FFAEE997EA968FADEA9780788068EA96CE
:104820008FAFEA97CE018C589F4F0E94BA1F0E940B
:1048300091138823C9F2E0961FAF0EAFE097E2967E
:104840007FAE6EAEE297E396FFAEE397E4968FAD50
:10485000E49780788068E4968FAFE497CE01825920
:104860009F4F0E94D31F6EE675E00E94F133892BA3
:1048700009F0BACF1A8309837EE6E72E75E0F72E9A
:10488000FC82EB82E7E0BE2EBD828E81807880685C
:104890008E83CE0101960E94BA1F0E949113882335
:1048A00009F4A2CF1A830983FC82EB82BD828E8138
:1048B000807880688E83CE0101960E94D31F7C0190
:1048C0001A830983DC82CB8285E08D838E81807898
:1048D00080688E83CE0101960E9497295C016CE767
:1048E00075E0C7010E94F133892B29F48CE795E02C
:1048F0000E94FC280BC18090210986E895E0882061
:1049000009F474CF65E975E0C7010E94F133892B82
:1049100009F080C01A83098323EA35E03C832B83A6
:104920008AE08D838E81807880688E83CE010196A7
:104930000E9497297C01FC0101900020E9F7CF013A
:1049400081978E159F0509F062C06EEA75E0C70178
:104950000E940134809709F05AC0E0961FAF0EAF55
:10496000E0975FEBA52E55E0B52EE296BFAEAEAE5A
:10497000E29769E0962EE3969FAEE397E4968FADBB
:10498000E49780788068E4968FAFE497CE018259EF
:104990009F4F0E94BA1F0E9483288823C1F11A8367
:1049A0000983BC82AB829D828E81807880688E83F1
:1049B000CE0101960E940C298131974240F5B70142
:1049C00080E099E00E94FA331A830983BC82AB82AB
:1049D0009D828E81807880688E83CE0101960E94B0
:1049E0000C299093FB088093FA080E948D0660932F
:1049F000FC087093FD088093FE089093FF0885E9FA
:104A000095E00E94FC28C8010E94951967CE89ECA8
:104A100095E0ECCE69ED75E0C7010E94F133892B7A
:104A2000E1F44AE1842E44E0942E312CF4016191AA
:104A300071914F01C5010E94F133892B39F43092F5
:104A40007C0881E080937D08C70152CF3394FAE05F
:104A50003F12ECCF8DEE95E0C9CE6DEF75E0C7014A
:104A60000E94F133892B09F060C01A830983DC822C
:104A7000CB8235E0F32EFD828E81807880688E8334
:104A8000CE0101960E94BA1F009721F0FC0184819B
:104A9000863019F08BE096E0A9CE1A830983DC8278
:104AA000CB82FD828E81807880688E83CE010196D4
:104AB0000E94BA1FFC01892BE9F094819A3049F1D8
:104AC00030F49923B9F09630A1F0982C13C09C30A3
:104AD00001F19E30D1F79924939420E030E0A901B0
:104AE00060817181828193810E940730811102C0AF
:104AF0001AC09080909205020E948D066093F6087D
:104B00007093F7088093F8089093F9080E94831E29
:104B10007ACF9924939480819181A281B381892B4A
:104B20008A2B8B2B39F7912CE5CF69E176E0C70111
:104B30000E94F133892BB9F410927D088091F50819
:104B400090E00196817099278093F5080E948D0668
:104B50006093F6087093F7088093F8089093F9082B
:104B600089E196E0C5CE63E276E0C7010E94F133A9
:104B7000892BB9F410927D088091F50890E0019698
:104B8000817099278093F5080E948D066093F6083E
:104B90007093F7088093F8089093F90883E296E001
:104BA000A7CE61E376E0C7010E94F133892B09F0BB
:104BB00047C0E0961FAF0EAFE097E296DFAECEAEF5
:104BC000E29725E0F22EE396FFAEE397E4968FADF1
:104BD000E49780788068E4968FAFE497CE0182599D
:104BE0009F4F0E94BA1F0E948328882331F11A83A5
:104BF0000983DC82CB82FD828E81807880688E83FF
:104C0000CE0101960E940C2985369105B0F41092D0
:104C100000091A830983DC82CB82FD828E81807831
:104C200080688E83CE0101960E940C298093020237
:104C30000E94BF1481E396E05BCE89E396E0D6CD77
:104C400065E476E0C7010E94F133892B51F592E4C7
:104C5000E92E94E0F92E912CF70160817181C50154
:104C60000E94F133892B71F410920009892D0E9462
:104C70008914811111C0109221098EE496E00E94DE
:104C8000731E44CF9394F4E0EF0EF11C2BE09212CC
:104C9000E3CF81E996E0AACD9092030285E496E005
:104CA00027CE63E676E0C7010E94F133892B19F520
:104CB0008EE6E82E84E0F82E912CF7016081718158
:104CC000C5010E94F133892B61F410920009892DEE
:104CD0000E94A528882379F29092040283E696E048
:104CE00007CE9394F5E0EF0EF11C26E09212E5CF8B
:104CF0008EE996E07BCD83E796E078CD8D3059F054
:104D0000EF3760F491E09E0F90931608F0E0EA56BA
:104D1000F84F8083A1CCEF3708F49ECC1092160890
:104D200081E08093170883E896E00E94731E94CC7C
:104D3000C558DF4F0FB6F894DEBF0FBECDBFDF9171
:104D4000CF911F910F91FF90EF90DF90CF90BF9088
:104D5000AF909F908F907F906F905F904F903F901B
:104D60000895CB01BA010C94F0321F920F920FB646
:104D70000F9211242F933F938F939F93AF93BF93E1
:104D80008091230990912409A0912509B0912609C9
:104D90003091220923E0230F2D3758F50196A11DEC
:104DA000B11D209322098093230990932409A09395
:104DB0002509B09326098091270990912809A0918F
:104DC0002909B0912A090196A11DB11D80932709D7
:104DD00090932809A0932909B0932A09BF91AF9114
:104DE0009F918F913F912F910F900FBE0F901F9029
:104DF000189526E8230F0296A11DB11DD2CF1F9250
:104E00000F920FB60F9211240BB60F922F933F9370
:104E10004F935F936F937F938F939F93AF93BF93C2
:104E2000EF93FF9381E899E00E940D07FF91EF91C6
:104E3000BF91AF919F918F917F916F915F914F91B2
:104E40003F912F910F900BBE0F900FBE0F901F90B0
:104E500018951F920F920FB60F9211240BB60F9256
:104E60002F938F939F93EF93FF93E0919109F0918C
:104E700092098081E0919709F091980982FD1DC007
:104E8000908180919A098F5F8F7320919B0982177F
:104E900041F0E0919A09F0E0EF57F64F958F80933B
:104EA0009A09FF91EF919F918F912F910F900BBED7
:104EB0000F900FBE0F901F9018958081F2CF1F9218
:104EC0000F920FB60F9211240BB60F922F933F93B0
:104ED0004F935F936F937F938F939F93AF93BF9302
:104EE000EF93FF938091B900887F803609F44DC01D
:104EF00008F040C0883209F4A9C028F5803109F4CF
:104F00009DC0C8F4882309F4FBC0883009F496C01A
:104F1000FF91EF91BF91AF919F918F917F916F9191
:104F20005F914F913F912F910F900BBE0F900FBE4D
:104F30000F901F901895883109F488C0803241F78E
:104F40008093550914C0803409F49DC040F4803327
:104F5000B9F38833E9F68093550985ECB0C0803504
:104F600009F485C0883509F496C0883489F60E9412
:104F7000DE1FCECF883909F48CC038F5883729F088
:104F800050F4883611F0803719F683E08093570982
:104F900010925A0857C0883809F47BC0803919F03C
:104FA000803809F0B5CF80915A08803208F071C07E
:104FB000E0915A0881E08E0F80935A088091BB00DF
:104FC000F0E0E65CF74F80833DC0803B39F0E0F4D1
:104FD000803A09F479C0883A09F09ACF84E0809346
:104FE00057091092390810923808E0912D09F09174
:104FF0002E0919958091380881110FC081E08093A6
:1050000038081092180809C0803C09F4A6CF883CE3
:1050100009F4A3CF883B09F07BCFE091390881E008
:105020008E0F80933908F0E0E85EF74F808180931F
:10503000BB00909139088091380829C080913209CD
:105040008093BB0085EC8093BC0062CF90915409A3
:1050500080915309981758F5E091540981E08E0F1B
:1050600080935409F0E0ED5CF64F8081E9CFE09148
:10507000540981E08E0F809354098091BB00F0E0C9
:10508000ED5CF64F808390915409809153099817F5
:10509000C8F285E8D8CFE091540981E08E0F809363
:1050A00054098091BB00F0E0ED5CF64F8083809165
:1050B000560981115CCF81E08093310984EA8093A5
:1050C000BC001092570924CF85EC8093BC0010924D
:1050D000570980915A08803230F4E0915A08F0E084
:1050E000E65CF74F108260915A0870E0E0912B095E
:1050F000F0912C098AE398E0199510925A0808CF8C
:105100001092550934CFFC01892B29F084818A3013
:1051100021F08C3069F080E00AC081E0408151814B
:10512000628173814115510561407105A0F70895B1
:10513000408151816281738177FDEDCF81E041151E
:105140005105614071059CF3E6CF1F93CF93DF9328
:10515000CDB7DEB765970FB6F894DEBF0FBECDBFF3
:1051600095E0899FF0011124E259FB4F4281809123
:105170002D0A90912E0A1A8A1B8A1C8A1D8A9A83EC
:1051800089831C821B8211E01C8781E890E09A874A
:1051900089871D861B8750E070E060E020E0CE012B
:1051A00001960E94C4118823E9F080912D0A909104
:1051B0002E0A1A8A1B8A1C8A1D8A9A8389831C825A
:1051C0001B821C878AEC90E09A8789871D8682E083
:1051D0008B8720E047EE53E060E070E0CE0101965F
:1051E0000E94C41165960FB6F894DEBF0FBECDBF06
:1051F000DF91CF911F910895CF93DF93EC018EE65D
:1052000093E00E94C115CE010E94611E8CE693E0DE
:10521000DF91CF910C94A11DCF92DF92EF92FF927C
:10522000CF93DF9300D01F921F92CDB7DEB70E94BD
:10523000BA1FDC01892B09F433C01496EC91149742
:10524000E250ED3068F5F0E08827E65DF64D8F4FCF
:105250000C94A931532950296529682937295029E7
:105260005029502946295029462950296C296C91EA
:1052700070E0CB010F900F900F900F900F90DF9187
:10528000CF91FF90EF90DF90CF9008958D919D91F9
:105290000D90BC91A02DBC010097A140B10548F331
:1052A00070E060E0E6CFCD010E94DC153A834B83CD
:1052B0005C836D83CA80DB80EC80FD80223041F10D
:1052C000233071F1213061F70BC08D919C91ECCFAF
:1052D0008D919C910496E8CFCD90DD90ED90FC905F
:1052E00020E030E0A901C701B6010E94C53087FD6A
:1052F000D7CF20E03FEF4FE757E4C701B6010E9448
:10530000073018166CF2C701B6010E940C30B1CFFD
:10531000C114D10481E0E806F10410F6B601A9CF6A
:10532000C114D10421E0E206F104C0F3B9CFCF9358
:10533000DF93EC010E94BA1F0E949113882329F089
:10534000CE01DF91CF910C94D31F80E095E0DF91E7
:10535000CF9108950F931F93CF93DF93E1E8F9E086
:105360001382128288EE93E0A0E0B0E084839583FC
:10537000A683B78320E934E03183208325EC30E035
:105380003587248724EC30E03787268720EC30E00F
:10539000318B208B21EC30E0338B228B22EC30E000
:1053A000358B248B26EC30E0378B268B118E128EBA
:1053B000138E148EEEE1FAE01382128284839583B9
:1053C000A683B78382EA94E091838083E1E7FAE0E1
:1053D0001382128286EE94E091838083E5E7FAE0FF
:1053E00080E094E0DF019C011D9221503040E1F704
:1053F0001092760E1092750ECAE4DAE01B821A82C1
:1054000024E530E03D832C8380E390E09F838E830E
:10541000398728879B878A871E8A1D861C861F8658
:105420001E8681E08D8B8C8B2FEF3FEF3B8B2A8B81
:10543000398B288B8F8B188E1A8E198E8AEB94E0FD
:10544000998388838CE190E00E94CB318C0184E0C9
:10545000D8011B968C931B978FEF1E968C931E97EB
:105460001D968C931D971C968C931C9789E49AE04B
:1054700011969C938E935B961C9282E090E00E9422
:10548000CB3120E5FC0120831182D80113969C9337
:105490008E93129780E099E0ADE3B0E0F801848349
:1054A0009583A683B78381E090E0918780871286F9
:1054B0001C8F0B8F85E08E8F83E08D8FEAE2FAE000
:1054C00084EB94E091838083128214821382DF91B3
:1054D000CF911F910F910895CF93DF93CDB7DEB792
:1054E00067970FB6F894DEBF0FBECDBF789484B532
:1054F000826084BD84B5816084BD85B5826085BDD0
:1055000085B5816085BD80916E00816080936E005D
:10551000109281008091810082608093810080914F
:105520008100816080938100809180008160809300
:1055300080008091B10084608093B1008091B000C0
:1055400081608093B000809191008260809391008F
:1055500080919100816080939100809190008160A2
:10556000809390008091A10082608093A10080913F
:10557000A10081608093A1008091A0008160809350
:10558000A0008091210182608093210180912101FE
:1055900081608093210180912001816080932001AE
:1055A00080917A00846080937A0080917A00826092
:1055B00080937A0080917A00816080937A00809154
:1055C0007A00806880937A001092C100E09191097E
:1055D000F091920982E08083E0918D09F0918E092B
:1055E0001082E0918F09F091900980E18083109200
:1055F0009909E0919509F091960986E08083E09100
:105600009309F0919409808180618083E0919309EE
:10561000F0919409808188608083E0919309F091F2
:105620009409808180688083E0919309F0919409C6
:1056300080818F7D808361E08BE00E9414060E9450
:10564000BF140E947E101092D80888EA91E6A0E06C
:10565000B0E08093590990935A09A0935B09B093E5
:105660005C0981E0809358090091650A1091660AEF
:10567000F80183858F3F41F061E00E94140661E0EC
:10568000F80183850E948805F80180819181892B2A
:1056900009F4A1C0FFB6F89480917B08811127C05E
:1056A000E1EDF9E08491E7E1FAE09491E82FF0E090
:1056B000EE0FFF1FE859F64FA591B491EC91E92345
:1056C00021F461E085E30E94880561E085E30E94A2
:1056D00014068CB580618CBD8CB580648CBD61E096
:1056E00084E30E94140661E083E30E941406809123
:1056F0007B088F5F80937B08FFBE81E0F801838F7A
:1057000061E08091680A0E9414068091670A87FD13
:1057100003C061E00E94140684E080936A0A88E274
:105720008093690A10926B0A10926C0A0E94810F92
:1057300010926D0A80916E0A833508F483E5809398
:105740006E0A10926F0A8091700A8F3208F48FE20D
:105750008093700A0E94BB0F87E30E946A0F62E089
:105760008AE49AE00E943E080E94681D0E94BB0FD6
:1057700080912D0A90912E0A009711F00E946732B5
:1057800086E090E00E94CB318C0189E3F8018083B0
:105790008EE19AE092838183138280E290E0958388
:1057A000848310932E0A00932D0A0E947E10FF24FA
:1057B000F394F801F382C8010E94CD1281112DC02B
:1057C000109221090E94FE1D86E895E00E94731E3A
:1057D0000E94D622FDCF61E084850E941406F80164
:1057E00082858B7F60E009F061E084850E948805F6
:1057F000F80185858F3F41F061E00E94140661E069
:10580000F80185850E948805F80186858F3F09F497
:1058100074CF60E00E94140670CF40E050E0BA01FF
:105820008AE29AE00E94091D80932109882351F29F
:10583000809103020E948914882331F08091040230
:105840000E94A528811189C1109221090E94FE1D84
:105850008EE496E00E94731E0E94831EAA24A394E5
:10586000B12CB0EE2B2EB6E03B2E12ED412E16E001
:10587000512E07ED602E06E0702E84E6882E912CC6
:105880000E94D6228091750E9091760EC12CF4E084
:10589000DF2EC81AD90A28E5C21622E0D20608F47B
:1058A00059C180912109882309F454C10E948D06B1
:1058B000209100092223D1F00091FC081091FD08ED
:1058C0002091FE083091FF086B017C01C01AD10ABB
:1058D000E20AF30A0091FA081091FB0830E020E098
:1058E000C016D106E206F30608F434C12091050281
:1058F000222329F10091F6081091F7082091F80869
:105900003091F9086B017C01C01AD10AE20AF30A4E
:1059100097018601083B1B402105310580F060930B
:10592000F6087093F7088093F8089093F90880912F
:10593000F50890E00196817099278093F508A89565
:1059400088E199E20FB6F894A895809360000FBEA5
:105950009093600080E00E94241C0E94D21C60E3AF
:1059600080E00E949E1261E081E00E949E1260E051
:1059700082E00E949E1260E083E00E949E1260E03E
:1059800084E00E949E1262E485E00E949E1260E024
:1059900086E00E949E1260E087E00E949E1260E511
:1059A00088E00E949E1260E089E00E949E1260E002
:1059B0008AE00E949E1260E08BE00E949E1260E2EC
:1059C0008CE00E949E1264E08DE00E949E1260E0D6
:1059D0008EE00E949E1260E38FE00E949E1261E0C2
:1059E00080E10E949E1260E581E10E949E1260E0CB
:1059F00082E10E949E1266E083E10E949E120E9454
:105A00005A1C81E00E94241C0E94961B80912D0A42
:105A100090912E0A1A8A1B8A1C8A1D8A9A8389836E
:105A20001C821B8281E08C8785E990E09A878987B8
:105A30001D8682E08B874CE06FE27AE0CE01019612
:105A40000E94B719182F80E00E94241C0E94D21CCB
:105A500060E080E00E949E1260E081E00E949E1261
:105A600060E082E00E949E1260E483E00E949E1249
:105A700062E084E00E949E1260E085E00E949E1237
:105A800060E186E00E949E1263E087E00E949E1221
:105A900060E588E00E949E1260E189E00E949E120B
:105AA00063E08AE00E949E1260E08BE00E949E12FA
:105AB00060E08CE00E949E1260E08DE00E949E12E9
:105AC00064E28EE00E949E1260E08FE00E949E12CF
:105AD00060E080E10E949E1260E581E10E949E12DA
