:100000000C9453000C947B000C947B000C947B00AC
:100010000C947B000C947B000C947B000C947B0074
:100020000C947B000C947B000C947B000C947B0064
:100030000C947B000C947B000C947B000C947B0054
:100040000C94DB010C947B000C944B020C94250265
:100050000C947B000C947B000C947B000C947B0034
:100060000C947B000C947B0000000000250028000D
:100070002B0000000000240027002A0004040404D0
:100080000404040402020202020203030303030342
:10009000010204081020408001020408102001021F
:1000A00004081020320411241FBECFEFD8E0DEBFB9
:1000B000CDBF11E0A0E0B1E0E8E9FDE002C00590AD
:1000C0000D92AE37B107D9F722E0AEE7B1E001C03B
:1000D0001D92A432B207E1F710E0C3E5D0E004C0FE
:1000E0002197FE010E94C406C235D107C9F70E94BC
:1000F0007D020C94CA060C940000AF92BF92CF927E
:10010000DF92EF92FF920F931F93CF93DF936C01D7
:100110007B018B01040F151FEB015E01AE18BF08B8
:10012000C017D10759F06991D601ED91FC9101906A
:10013000F081E02DC6010995892B79F7C501DF9182
:10014000CF911F910F91FF90EF90DF90CF90BF90D4
:10015000AF900895FC01538D448D252F30E0842FFE
:1001600090E0821B930B541710F0CF9608950197DF
:100170000895FC01918D828D981761F0A28DAE0FCC
:10018000BF2FB11D5D968C91928D9F5F9F73928F53
:1001900090E008958FEF9FEF0895FC01918D828D7F
:1001A000981731F0828DE80FF11D858D90E008954C
:1001B0008FEF9FEF0895FC01918D228D892F90E0A4
:1001C000805C9F4F821B91098F739927089587E860
:1001D00091E00E94DB0021E0892B09F420E0822FCE
:1001E000089580E090E0892B29F00E94E7008111BA
:1001F0000C9400000895FC01A48DA80FB92FB11D27
:10020000A35ABF4F2C91848D90E001968F7399274C
:10021000848FA689B7892C93A089B1898C9183702A
:1002200080648C93938D848D981306C00288F38923
:10023000E02D80818F7D80830895EF92FF920F9350
:100240001F93CF93DF93EC0181E0888F9B8D8C8D82
:1002500098131AC0E889F989808185FF15C09FB776
:10026000F894EE89FF896083E889F9898081837039
:10027000806480839FBF81E090E0DF91CF911F91E8
:100280000F91FF90EF900895F62E0B8D10E00F5F09
:100290001F4F0F731127E02E8C8D8E110CC00FB6DF
:1002A00007FCFACFE889F989808185FFF5CFCE0177
:1002B0000E94FB00F1CFEB8DEC0FFD2FF11DE35AF7
:1002C000FF4FF0829FB7F8940B8FEA89FB898081FA
:1002D0008062CFCFCF93DF93EC01888D8823B9F074
:1002E000AA89BB89E889F9898C9185FD03C0808141
:1002F00086FD0DC00FB607FCF7CF8C9185FFF2CFBE
:10030000808185FFEDCFCE010E94FB00E9CFDF9118
:10031000CF910895FC0101900020E9F73197AF01DA
:10032000481B590BBC0187E891E00C947D008F922B
:100330009F92AF92BF920F931F93CF93DF93CDB74E
:10034000DEB7A1970FB6F894DEBF0FBECDBF19A2DE
:10035000423008F44AE08E010F5D1F4F842E912C2D
:10036000B12CA12CA50194010E94A206E62FB9018F
:10037000CA01EA30F4F4E05DD801EE938D01232B3D
:10038000242B252B79F790E080E0109719F0CD0110
:100390000E948A01A1960FB6F894DEBF0FBECDBFB2
:1003A000DF91CF911F910F91BF90AF909F908F9051
:1003B0000895E95CE1CF1F920F920FB60F921124BE
:1003C0002F933F938F939F93AF93BF93809183011C
:1003D00090918401A0918501B091860130918201B4
:1003E00023E0230F2D3758F50196A11DB11D209351
:1003F00082018093830190938401A0938501B0933F
:10040000860180917E0190917F01A0918001B09141
:1004100081010196A11DB11D80937E0190937F0102
:10042000A0938001B0938101BF91AF919F918F9173
:100430003F912F910F900FBE0F901F90189526E8B7
:10044000230F0296A11DB11DD2CF1F920F920FB69E
:100450000F9211242F933F934F935F936F937F934A
:100460008F939F93AF93BF93EF93FF9387E891E0B0
:100470000E94FB00FF91EF91BF91AF919F918F91EF
:100480007F916F915F914F913F912F910F900FBE90
:100490000F901F9018951F920F920FB60F92112474
:1004A0002F938F939F93EF93FF93E0919701F09198
:1004B00098018081E0919D01F0919E0182FD1BC019
:1004C00090818091A0018F5F8F732091A10182178D
:1004D00041F0E091A001F0E0E957FE4F958F809345
:1004E000A001FF91EF919F918F912F910F900FBEDF
:1004F0000F901F9018958081F4CF789484B5826016
:1005000084BD84B5816084BD85B5826085BD85B5B7
:10051000816085BD80916E00816080936E00109235
:1005200081008091810082608093810080918100B0
:100530008160809381008091800081608093800041
:100540008091B10084608093B1008091B00081609F
:100550008093B00080917A00846080937A008091CB
:100560007A00826080937A0080917A008160809323
:100570007A0080917A00806880937A001092C1009E
:10058000E0919701F091980182E08083E0919301DE
:10059000F09194011082E0919501F091960180E133
:1005A000808310929F01E0919B01F0919C0186E075
:1005B0008083E0919901F0919A018081806180832C
:1005C000E0919901F0919A01808188608083E091A7
:1005D0009901F0919A01808180688083E09199016E
:1005E000F0919A0180818F7D8083E9E9F0E0249188
:1005F000E5E8F0E08491882399F090E0880F991F56
:10060000FC01EE58FF4FA591B491FC01E859FF4F52
:10061000859194918FB7F894EC91E22BEC938FBF76
:1006200083E88093800089E08093810013E4C0E038
:10063000D0E010937C0080917A00806480937A00EF
:1006400080917A0086FDFCCF6091780070917900EE
:10065000072E000C880B990B0E947B052AE038E2DC
:1006600040EA5BE30E9430066B017C01C09200010E
:10067000D0920101E0920201F092030120E030E00B
:10068000A9010E94CC0487FD57C020E030E040EA79
:1006900050E4C701B6010E942B06181634F4C12C91
:1006A000D12C80EAE82E80E4F82E20E030EC4FE7F1
:1006B00054E4C701B6010E94300620E030E040EA71
:1006C00050E40E94D1040E94430570938900609316
:1006D000880086E191E00E948A01C0900001D090DC
:1006E0000101E0900201F0900301A7019601C7010A
:1006F000B6010E949D06882319F18EE391E00E94C5
:100700008A018AE491E00E948A018DE491E00E94CE
:100710008A0180E591E00E948A018DE491E00E94C7
:100720008A01209709F485CF0E94E700882309F405
:1007300080CF0E9400007DCFC12CD12C7601B5CF97
:1007400046015701E894B7F82FEF3FEF4FE75FE717
:10075000C501B4010E949D0681110DC02FEF3FEF2E
:100760004FE75FE7C501B4010E94CC0418161CF4E2
:1007700082E491E0C4CF2FEF3FEF4FE75FE4C70182
:10078000B6010E942B0618161CF486E491E0B7CF40
:100790002FEF3FEF4FE75FECC701B6010E94CC049B
:1007A00087FDF3CF20E030E0A901C701B6010E9428
:1007B000CC0487FF09C06DE287E891E00E941D012B
:1007C000F7FAF094F7F8F0942AE037ED43EA5BE3A8
:1007D000C701B6010E9460044B015C010E944A05FA
:1007E0006B017C010E9479059B01AC01C501B4013C
:1007F0000E945F044B015C014AE0C701B6010E9400
:1008000097016EE287E891E00E941D0120E030E050
:1008100040E251E4C501B4010E9430064B015C0185
:100820000E944A056B01F12CE12C4AE0C701B60198
:100830000E949701C701B6010E9479059B01AC0196
:10084000C501B4010E945F0420E030E040E251E4C1
:100850000E9430060E944A0590E080E04AE00E9433
:1008600097014FCFE7E8F1E01382128288EE93E020
:10087000A0E0B0E084839583A683B78388E091E00D
:100880009183808385EC90E09587848784EC90E069
:100890009787868780EC90E0918B808B81EC90E04D
:1008A000938B828B82EC90E0958B848B86EC90E02E
:1008B000978B868B118E128E138E148E089550583E
:1008C000BB27AA270E9477040C94F1050E94E30538
:1008D00038F00E94EA0520F039F49F3F19F426F41D
:1008E0000C94E0050EF4E095E7FB0C94DA05E92F93
:1008F0000E94020658F3BA17620773078407950728
:1009000020F079F4A6F50C9424060EF4E0950B2E55
:10091000BA2FA02D0B01B90190010C01CA01A00151
:100920001124FF27591B99F0593F50F4503E68F1AC
:100930001A16F040A22F232F342F4427585FF3CFED
:10094000469537952795A795F0405395C9F77EF4BE
:100950001F16BA0B620B730B840BBAF09150A1F007
:10096000FF0FBB1F661F771F881FC2F70EC0BA0F8D
:10097000621F731F841F48F4879577956795B79515
:10098000F7959E3F08F0B0CF9395880F08F0992710
:10099000EE0F9795879508950E94B60508F481E0BB
:1009A00008950E94E5040C94F1050E94EA0558F0B0
:1009B0000E94E30540F029F45F3F29F00C94DA052A
:1009C00051110C9425060C94E0050E94020668F370
:1009D0009923B1F3552391F3951B550BBB27AA27F8
:1009E00062177307840738F09F5F5F4F220F331F32
:1009F000441FAA1FA9F335D00E2E3AF0E0E832D0FA
:100A000091505040E695001CCAF72BD0FE2F29D0FC
:100A1000660F771F881FBB1F261737074807AB07CE
:100A2000B0E809F0BB0B802DBF01FF2793585F4F43
:100A30003AF09E3F510578F00C94DA050C942506A7
:100A40005F3FE4F3983ED4F3869577956795B79525
:100A5000F7959F5FC9F7880F911D9695879597F930
:100A60000895E1E0660F771F881FBB1F62177307A9
:100A70008407BA0720F0621B730B840BBA0BEE1FBE
:100A800088F7E09508950E944A056894B1110C9486
:100A9000250608950E940A0688F09F5798F0B92FFE
:100AA0009927B751B0F0E1F0660F771F881F991FA3
:100AB0001AF0BA95C9F714C0B13091F00E9424061B
:100AC000B1E008950C942406672F782F8827B85F2B
:100AD00039F0B93FCCF3869577956795B395D9F7FB
:100AE0003EF490958095709561957F4F8F4F9F4F05
:100AF0000895E89409C097FB3EF490958095709511
:100B000061957F4F8F4F9F4F9923A9F0F92F96E959
:100B1000BB279395F695879577956795B795F111CE
:100B2000F8CFFAF4BB0F11F460FF1BC06F5F7F4F6B
:100B30008F4F9F4F16C0882311F096E911C077237D
:100B400021F09EE8872F762F05C0662371F096E886
:100B5000862F70E060E02AF09A95660F771F881F55
:100B6000DAF7880F9695879597F90895990F0008F9
:100B7000550FAA0BE0E8FEEF16161706E807F9076F
:100B8000C0F012161306E407F50798F0621B730B0A
:100B9000840B950B39F40A2661F0232B242B252B8B
:100BA00021F408950A2609F4A140A6958FEF811D2E
:100BB000811D089597F99F6780E870E060E00895CF
:100BC0009FEF80EC089500240A9416161706180665
:100BD0000906089500240A94121613061406050641
:100BE0000895092E0394000C11F4882352F0BB0FD2
:100BF00040F4BF2B11F460FF04C06F5F7F4F8F4F35
:100C00009F4F089557FD9058440F551F59F05F3F6F
:100C100071F04795880F97FB991F61F09F3F79F01E
:100C200087950895121613061406551FF2CF4695A0
:100C3000F1DF08C0161617061806991FF1CF869522
:100C40007105610508940895E894BB276627772706
:100C5000CB0197F908950E94B60508F48FEF089527
:100C60000E9443060C94F1050E94E30538F00E94AF
:100C7000EA0520F0952311F00C94DA050C94E005B8
:100C800011240C9425060E94020670F3959FC1F36F
:100C9000950F50E0551F629FF001729FBB27F00D2A
:100CA000B11D639FAA27F00DB11DAA1F649F66277F
:100CB000B00DA11D661F829F2227B00DA11D621FCE
:100CC000739FB00DA11D621F839FA00D611D221F88
:100CD000749F3327A00D611D231F849F600D211D6C
:100CE000822F762F6A2F11249F5750409AF0F1F0EF
:100CF00088234AF0EE0FFF1FBB1F661F771F881F58
:100D000091505040A9F79E3F510580F00C94DA05B0
:100D10000C9425065F3FE4F3983ED4F386957795CF
:100D20006795B795F795E7959F5FC1F7FE2B880FFD
:100D3000911D9695879597F908950E94B605880BA1
:100D4000990B0895A1E21A2EAA1BBB1BFD010DC031
:100D5000AA1FBB1FEE1FFF1FA217B307E407F5076B
:100D600020F0A21BB30BE40BF50B661F771F881F47
:100D7000991F1A9469F760957095809590959B01DD
:100D8000AC01BD01CF010895EE0FFF1F0590F49156
:080D9000E02D0994F894FFCF57
:100D980000000040000000001D017D00AA006A015B
:100DA800DB00B900CD00566F6C74616A652064651C
:100DB8002073616C69646120636F6E7374616E7413
:100DC800652066696A61646F20656E3A20006E610D
:100DD8006E00696E66006F7666002056000D0A0088
:100DE800496E696369616E646F2072616D7061201C
:100DF80064696E616D696361206261736164612019
:0E0E0800656E20566F6C74696F732E2E2E006F
:00000001FF
