:100000000C94E3000C9414010C9414010C9414014E
:100010000C9414010C9414010C9414010C9414010C
:100020000C9414010C9414010C9414010C941401FC
:100030000C9414010C9414010C9414010C941401EC
:100040000C9414010C9414010C9414010C941401DC
:100050000C9414010C9414010C9414010C949B0244
:100060000C9414010C940F030C94E5020C941401ED
:100070000C9414010C9414010C9414010C941401AC
:100080000C9414010C9414010C9414010C9414019C
:100090000C9414010C9414010C9414010C9414018C
:1000A0000C9414010C9414010C9414010C9414017C
:1000B0000C9414010C9414010C9414010C9414016C
:1000C0000C9414010C9414010C9414010C9414015C
:1000D0000C9414010C9414010C9414010C9414014C
:1000E0000C9414010C94F9010C9466010C947401A5
:1000F0000C9443010C9416010C9452010C941A05B3
:100100000C94AC0100002200250028002B002E00DA
:100110003100340002010000050108010B0100005C
:100120002100240027002A002D00300033000101A7
:100130000000040107010A01050505050705080877
:100140000808020202020A0A080804040404010161
:100150000101010101010303030303030303040776
:1001600007070C0C0C0C0C0C0C0C0202020206060D
:100170000606060606060B0B0B0B0B0B0B0B010200
:1001800010202008081020401020408002010201A9
:100190000804020101020408102040808040201061
:1001A00008040201800402018040201008040201BA
:1001B0000804020101020408102040800102040822
:1001C000102040801A0511241FBECFEFD1E2DEBF00
:1001D000CDBF00E00CBF12E0A0E0B2E0ECE6FFE033
:1001E00000E00BBF02C007900D92A035B107D9F710
:1001F00022E0A0E5B2E001C01D92A63FB207E1F700
:1002000010E0C3EED0E000E006C021970109802F86
:10021000FE010E94AC07C23ED10780E00807A9F7A3
:100220000E9445030C94B4070C940000AF92BF9257
:10023000CF92DF92EF92FF920F931F93CF93DF93B2
:100240006C017B018B01040F151FEB015E01AE18E1
:10025000BF08C017D10759F06991D601ED91FC9103
:100260000190F081E02DC6011995892B79F7C50120
:10027000DF91CF911F910F91FF90EF90DF90CF9082
:10028000BF90AF900895FC01538D448D252F30E031
:10029000842F90E0821B930B541710F0CF96089593
:1002A00001970895FC01918D828D981761F0A28DC0
:1002B000AE0FBF2FB11D5D968C91928D9F5F9F7386
:1002C000928F90E008958FEF9FEF0895FC01918D3C
:1002D000828D981731F0828DE80FF11D858D90E0A9
:1002E00008958FEF9FEF0895FC01918D228D892F46
:1002F00090E0805C9F4F821B91098F73992708952E
:1003000089E592E00E94740121E0892B09F420E044
:10031000822F0895FC01A48DA80FB92FB11DA35AF7
:10032000BF4F2C91848D90E001968F739927848F15
:10033000A689B7892C93A089B1898C918370806438
:100340008C93938D848D981306C00288F389E02DD9
:1003500080818F7D80830895EF92FF920F931F938A
:10036000CF93DF93EC0181E0888F9B8D8C8D981368
:100370001AC0E889F989808185FF15C09FB7F89474
:10038000EE89FF896083E889F989808183708064C0
:1003900080839FBF81E090E0DF91CF911F910F910B
:1003A000FF90EF900895F62E0B8D10E00F5F1F4F1A
:1003B0000F731127E02E8C8D8E110CC00FB607FC29
:1003C000FACFE889F989808185FFF5CFCE010E94B7
:1003D0008A01F1CFEB8DEC0FFD2FF11DE35AFF4F9A
:1003E000F0829FB7F8940B8FEA89FB898081806245
:1003F000CFCFCF93DF93EC01888D8823B9F0AA8902
:10040000BB89E889F9898C9185FD03C0808186FDCF
:100410000DC00FB607FCF7CF8C9185FFF2CF80811E
:1004200085FFEDCFCE010E948A01E9CFDF91CF9108
:10043000089580E090E0892B29F00E9480018111CD
:100440000E94000080E090E0892B49F080E090E07D
:10045000892B29F00E94000081110E94000080E099
:1004600090E0892B49F080E090E0892B29F00E94F0
:10047000000081110E94000080E090E0892B49F08B
:1004800080E090E0892B29F00E94000081110C94FB
:1004900000000895FC0101900020E9F73197AF01B9
:1004A000481B590BBC0189E592E00C9416018F9210
:1004B0009F92AF92BF920F931F93CF93DF93CDB7CD
:1004C000DEB7A1970FB6F894DEBF0FBECDBF19A25D
:1004D000423008F44AE08E010F5D1F4F842E912CAC
:1004E000B12CA12CA50194010E948A07E62FB90125
:1004F000CA01EA30F4F4E05DD801EE938D01232BBC
:10050000242B252B79F790E080E0109719F0CD018E
:100510000E944A02A1960FB6F894DEBF0FBECDBF6F
:10052000DF91CF911F910F91BF90AF909F908F90CF
:100530000895E95CE1CF1F920F920FB60F9211243C
:100540002F933F938F939F93AF93BF9380915502C7
:1005500090915602A0915702B091580230915402E6
:1005600023E0230F2D3758F50196A11DB11D2093CF
:1005700054028093550290935602A0935702B09371
:1005800058028091500290915102A0915202B09174
:1005900053020196A11DB11D809350029093510208
:1005A000A0935202B0935302BF91AF919F918F914C
:1005B0003F912F910F900FBE0F901F90189526E836
:1005C000230F0296A11DB11DD2CF1F920F920FB61D
:1005D0000F9211240BB60F922F933F934F935F937B
:1005E0006F937F938F939F93AF93BF93EF93FF93FB
:1005F00089E592E00E948A01FF91EF91BF91AF914E
:100600009F918F917F916F915F914F913F912F912A
:100610000F900BBE0F900FBE0F901F9018951F925A
:100620000F920FB60F9211240BB60F922F938F9348
:100630009F93EF93FF93E0916902F0916A028081AA
:10064000E0916F02F091700282FD1DC09081809157
:1006500072028F5F8F7320917302821741F0E091D5
:100660007202F0E0E75AFD4F958F80937202FF917E
:10067000EF919F918F912F910F900BBE0F900FBE16
:100680000F901F9018958081F2CF789484B5826086
:1006900084BD84B5816084BD85B5826085BD85B526
:1006A000816085BD80916E00816080936E001092A4
:1006B000810080918100826080938100809181001F
:1006C00081608093810080918000816080938000B0
:1006D0008091B10084608093B1008091B00081600E
:1006E0008093B0008091910082608093910080910E
:1006F000910081608093910080919000816080934F
:1007000090008091A10082608093A1008091A1005F
:1007100081608093A1008091A00081608093A000FF
:10072000809121018260809321018091210181606B
:10073000809321018091200181608093200180912C
:100740007A00846080937A0080917A00826080933E
:100750007A0080917A00816080937A0080917A009B
:10076000806880937A001092C100E0916902F09154
:100770006A0282E08083E0916502F0916602108255
:10078000E0916702F091680280E18083109271022B
:10079000E0916D02F0916E0286E08083E0916B0241
:1007A000F0916C02808180618083E0916B02F09116
:1007B0006C02808188608083E0916B02F0916C0212
:1007C000808180688083E0916B02F0916C0280816F
:1007D0008F7D8083E9E8F1E02491E3E4F1E0849106
:1007E000882399F090E0880F991FFC01E25EFE4F8C
:1007F000A591B491FC01EC5FFE4F859194918FB768
:10080000F894EC91E22BEC938FBF83E88093800007
:1008100089E080938100C3E480917B00877F80938F
:100820007B00C0937C0080917A00806480937A0082
:1008300080917A0086FDFCCF6091780070917900FC
:10084000072E000C880B990B0E9463062AE038E201
:1008500040EA5BE30E9418076B017C01C092000232
:10086000D0920102E0920202F092030220E030E016
:10087000A9010E94B40587FD47C020E030E040EAAE
:1008800050E4C701B6010E941307181634F4C12CB6
:10089000D12C80EAE82E80E4F82E20E030EC4FE7FF
:1008A00054E4C701B6010E94180720E030E040EA96
:1008B00050E40E94B9050E942B0670938900609352
:1008C000880086E192E00E944A02C0900002D09027
:1008D0000102E0900202F0900302A7019601C70115
:1008E000B6010E948507882399F08EE392E00E946A
:1008F0004A028AE492E00E944A028DE492E00E9459
:100900004A020E94190288CFC12CD12C7601C5CF92
:1009100046015701E894B7F82FEF3FEF4FE75FE745
:10092000C501B4010E94850781110DC02FEF3FEF73
:100930004FE75FE7C501B4010E94B40518161CF427
:1009400082E492E0D4CF2FEF3FEF4FE75FE4C7019F
:10095000B6010E94130718161CF486E492E0C7CF74
:100960002FEF3FEF4FE75FECC701B6010E94B405E0
:1009700087FDF3CF20E030E0A901C701B6010E9456
:10098000B40587FF09C06DE289E592E00E94AC01E1
:10099000F7FAF094F7F8F0942AE037ED43EA5BE3D6
:1009A000C701B6010E9448054B015C010E94320656
:1009B0006B017C010E9461069B01AC01C501B40181
:1009C0000E9447054B015C014AE0C701B6010E9445
:1009D00057026EE289E592E00E94AC0120E030E02F
:1009E00040E251E4C501B4010E9418074B015C01CB
:1009F0000E9432066B01F12CE12C4AE0C701B601DE
:100A00000E945702C701B6010E9461069B01AC011A
:100A1000C501B4010E94470520E030E040E251E406
:100A20000E9418070E94320690E080E04AE00E948F
:100A300057025FCFE9E5F2E01382128288EE93E07D
:100A4000A0E0B0E084839583A683B78388E092E03A
:100A50009183808385EC90E09587848784EC90E097
:100A60009787868780EC90E0918B808B81EC90E07B
:100A7000938B828B82EC90E0958B848B86EC90E05C
:100A8000978B868B118E128E138E148E089550586C
:100A9000BB27AA270E945F050C94D9060E94CB06AB
:100AA00038F00E94D20620F039F49F3F19F426F462
:100AB0000C94C8060EF4E095E7FB0C94C206E92FEF
:100AC0000E94EA0658F3BA1762077307840795076E
:100AD00020F079F4A6F50C940C070EF4E0950B2E9B
:100AE000BA2FA02D0B01B90190010C01CA01A00180
:100AF0001124FF27591B99F0593F50F4503E68F1DB
:100B00001A16F040A22F232F342F4427585FF3CF1B
:100B1000469537952795A795F0405395C9F77EF4EC
:100B20001F16BA0B620B730B840BBAF09150A1F035
:100B3000FF0FBB1F661F771F881FC2F70EC0BA0FBB
:100B4000621F731F841F48F4879577956795B79543
:100B5000F7959E3F08F0B0CF9395880F08F099273E
:100B6000EE0F9795879508950E949E0608F481E000
:100B700008950E94CD050C94D9060E94D20658F023
:100B80000E94CB0640F029F45F3F29F00C94C20686
:100B900051110C940D070C94C8060E94EA0668F3E4
:100BA0009923B1F3552391F3951B550BBB27AA2726
:100BB00062177307840738F09F5F5F4F220F331F60
:100BC000441FAA1FA9F335D00E2E3AF0E0E832D028
:100BD00091505040E695001CCAF72BD0FE2F29D02B
:100BE000660F771F881FBB1F261737074807AB07FD
:100BF000B0E809F0BB0B802DBF01FF2793585F4F72
:100C00003AF09E3F510578F00C94C2060C940D0703
:100C10005F3FE4F3983ED4F3869577956795B79553
:100C2000F7959F5FC9F7880F911D9695879597F95E
:100C30000895E1E0660F771F881FBB1F62177307D7
:100C40008407BA0720F0621B730B840BBA0BEE1FEC
:100C500088F7E09508950E9432066894B1110C94CB
:100C60000D0708950E94F20688F09F5798F0B92F5B
:100C70009927B751B0F0E1F0660F771F881F991FD1
:100C80001AF0BA95C9F714C0B13091F00E940C0760
:100C9000B1E008950C940C07672F782F8827B85F70
:100CA00039F0B93FCCF3869577956795B395D9F729
:100CB0003EF490958095709561957F4F8F4F9F4F33
:100CC0000895E89409C097FB3EF49095809570953F
:100CD00061957F4F8F4F9F4F9923A9F0F92F96E988
:100CE000BB279395F695879577956795B795F111FD
:100CF000F8CFFAF4BB0F11F460FF1BC06F5F7F4F9A
:100D00008F4F9F4F16C0882311F096E911C07723AB
:100D100021F09EE8872F762F05C0662371F096E8B4
:100D2000862F70E060E02AF09A95660F771F881F83
:100D3000DAF7880F9695879597F90895990F000827
:100D4000550FAA0BE0E8FEEF16161706E807F9079D
:100D5000C0F012161306E407F50798F0621B730B38
:100D6000840B950B39F40A2661F0232B242B252BB9
:100D700021F408950A2609F4A140A6958FEF811D5C
:100D8000811D089597F99F6780E870E060E00895FD
:100D90009FEF80EC089500240A9416161706180693
:100DA0000906089500240A9412161306140605066F
:100DB0000895092E0394000C11F4882352F0BB0F00
:100DC00040F4BF2B11F460FF04C06F5F7F4F8F4F63
:100DD0009F4F089557FD9058440F551F59F05F3F9E
:100DE00071F04795880F97FB991F61F09F3F79F04D
:100DF00087950895121613061406551FF2CF4695CF
:100E0000F1DF08C0161617061806991FF1CF869550
:100E10007105610508940895E894BB276627772734
:100E2000CB0197F908950E949E0608F48FEF08956C
:100E30000E942B070C94D9060E94CB0638F00E9422
:100E4000D20620F0952311F00C94C2060C94C8062B
:100E500011240C940D070E94EA0670F3959FC1F3CC
:100E6000950F50E0551F629FF001729FBB27F00D58
:100E7000B11D639FAA27F00DB11DAA1F649F6627AD
:100E8000B00DA11D661F829F2227B00DA11D621FFC
:100E9000739FB00DA11D621F839FA00D611D221FB6
:100EA000749F3327A00D611D231F849F600D211D9A
:100EB000822F762F6A2F11249F5750409AF0F1F01D
:100EC00088234AF0EE0FFF1FBB1F661F771F881F86
:100ED00091505040A9F79E3F510580F00C94C206F6
:100EE0000C940D075F3FE4F3983ED4F38695779515
:100EF0006795B795F795E7959F5FC1F7FE2B880F2C
:100F0000911D9695879597F908950E949E06880BE6
:100F1000990B0895A1E21A2EAA1BBB1BFD010DC05F
:100F2000AA1FBB1FEE1FFF1FA217B307E407F50799
:100F300020F0A21BB30BE40BF50B661F771F881F75
:100F4000991F1A9469F760957095809590959B010B
:100F5000AC01BD01CF010895EE0FFF1F881F8BBFAD
:0C0F60000790F691E02D1994F894FFCF53
:100F6C000000004000000000AC0116014301F90133
:100F7C00740152016601566F6C74616A6520646578
:100F8C002073616C69646120636F6E7374616E743D
:100F9C00652066696A61646F20656E3A20006E6137
:100FAC006E00696E66006F7666002056000D0A00B2
:00000001FF
