:100000000C94CC030C94FD030C94FD030C94FD03A1
:100010000C94FD030C94FD030C94FD030C94FD0360
:100020000C94FD030C94FD030C94FD030C94FD0350
:100030000C94FD030C94FD030C94FD030C94FD0340
:100040000C94FD030C94FD030C94FD030C94FD0330
:100050000C94FD030C94FD030C94FD030C94770F9A
:100060000C94FD030C94EB0F0C94C10F0C94FD0346
:100070000C94FD030C94FD030C94FD030C94FD0300
:100080000C94FD030C94FD030C94FD030C94FD03F0
:100090000C94FD030C94FD030C94FD030C942110AF
:1000A0000C94FD030C94FD030C94FD030C94FD03D0
:1000B0000C94FD030C94FD030C94FD030C94FD03C0
:1000C0000C94FD030C94FD030C94FD030C94FD03B0
:1000D0000C94FD030C94FD030C94FD030C94FD03A0
:1000E0000C94FD030C9450040C9439040C940B0EE6
:1000F0000C9476080C9481040C946F040C943C07C7
:100100000C94B60D0C9454040C9477040C945F0476
:100110000C941E0E0C9469040C94380D0C94EF0D85
:100120000C941B0D0C9441110C94A9060C946504BD
:100130000C94A30C0C948B040C947D0D0C947D04F6
:100140000C94720B0C9485040C94FF0D0C94EF0628
:100150000C940D090C94CB0E0C94440C0C94860654
:100160000C9459060C94170E0C943E040C947304D2
:100170000C9495060C945C040C948F040C94B706B4
:100180000C9438090C9465080C9458040C94CA0E0D
:1001900000000000003E5B4F5B3E3E6B4F6B3E1C21
:1001A0003E7C3E1C183C7E3C181C577D571C1C5E38
:1001B0007F5E1C00183C1800FFE7C3E7FF0018240F
:1001C0001800FFE7DBE7FF30483A060E26297929B9
:1001D00026407F050507407F05253F5A3CE73C5AEE
:1001E0007F3E1C1C08081C1C3E7F14227F22145FCB
:1001F0005F005F5F06097F017F006689956A606026
:1002000060606094A2FFA29408047E040810207E1F
:10021000201008082A1C08081C2A08081E101010A4
:10022000100C1E0C1E0C30383E3830060E3E0E06EA
:10023000000000000000005F00000007000700143D
:100240007F147F14242A7F2A1223130864623649FC
:100250005620500008070300001C224100004122E4
:100260001C002A1C7F1C2A08083E080800807030E9
:100270000008080808080000606000201008040258
:100280003E5149453E00427F40007249494946215E
:1002900041494D331814127F1027454545393C4AD2
:1002A00049493141211109073649494936464949E9
:1002B000291E000014000000403400000008142231
:1002C000411414141414004122140802015909069F
:1002D0003E415D594E7C1211127C7F494949363EA0
:1002E000414141227F4141413E7F494949417F0986
:1002F0000909013E414151737F0808087F00417F91
:1003000041002040413F017F081422417F4040408E
:10031000407F021C027F7F0408107F3E4141413E26
:100320007F090909063E4151215E7F0919294626A8
:100330004949493203017F01033F4040403F1F20AC
:1003400040201F3F4038403F631408146303047883
:1003500004036159494D43007F41414102040810A3
:1003600020004141417F04020102044040404040DE
:10037000000307080020545478407F28444438384C
:1003800044444428384444287F38545454180008BE
:100390007E090218A4A49C787F0804047800447D98
:1003A00040002040403D007F1028440000417F4035
:1003B000007C047804787C08040478384444443889
:1003C000FC1824241818242418FC7C080404084869
:1003D0005454542404043F44243C4040207C1C20BA
:1003E00040201C3C4030403C44281028444C909015
:1003F000907C4464544C440008364100000077006F
:1004000000004136080002010204023C2623263C7B
:100410001EA1A161123A4040207A38545455592106
:1004200055557941225454784221555478402054EE
:100430005579400C1E52721239555555593954543C
:10044000545939555454580000457C410002457DAB
:10045000420001457C407D1211127DF0282528F0D4
:100460007C545545002054547C547C0A097F493201
:10047000494949323A4444443A324A4848303A4178
:1004800041217A3A42402078009DA0A07D3D424221
:10049000423D3D4040403D3C24FF2424487E4943AA
:1004A000662B2FFC2F2BFF0929F620C0887E09031D
:1004B00020545479410000447D413048484A323844
:1004C0004040227A007A0A0A727D0D19317D262970
:1004D000292F28262929292630484D402038080868
:1004E000080808080808382F10C8ACBA2F1028349C
:1004F000FA00007B000008142A142222142A14088F
:100500005500550055AA55AA55AAFF55FF55FF009D
:100510000000FF00101010FF00141414FF00101052
:10052000FF00FF1010F010F0141414FC001414F766
:1005300000FF0000FF00FF1414F404FC1414171053
:100540001F10101F101F1414141F00101010F000A3
:100550000000001F101010101F10101010F01000DD
:100560000000FF101010101010101010FF100000ED
:1005700000FF140000FF00FF00001F10170000FC28
:1005800004F414141710171414F404F40000FF00FA
:10059000F714141414141414F700F7141414171483
:1005A00010101F101F141414F4141010F010F00089
:1005B000001F101F0000001F14000000FC140000AA
:1005C000F010F01010FF10FF141414FF141010108E
:1005D0001F00000000F010FFFFFFFFFFF0F0F0F041
:1005E000F0FFFFFF0000000000FFFF0F0F0F0F0FD5
:1005F0003844443844FC4A4A4A347E020206060221
:100600007E027E0263554941633844443C04407E87
:10061000201E2006027E020299A5E7A5991C2A4900
:100620002A1C4C7201724C304A4D4D30304878488B
:1006300030BC625A463D3E494949007E0101017E77
:100640002A2A2A2A2A44445F444440514A444040CA
:10065000444A51400000FF0103E080FF0000080809
:100660006B6B083612362436060F090F0600001889
:10067000180000001010003040FF0101001F0101B0
:100680001E00191D1712003C3C3C3C0000000000FD
:1006900000002100240027002A002D003000330034
:1006A00001010000040107010A0100000A0B020910
:1006B0000C0D0E08070304010000000000000000FC
:1006C000000000000000000000000000000000002A
:1006D00000000000000012111000000000000000E7
:1006E000000000000000000000000000000000000A
:1006F0000102102020080810204010204080020134
:100700000201080402010102040810204080804018
:100710002010080402018004020180402010080417
:1007200002010804020101020408102040800102B5
:1007300004081020408000002200250028002B0023
:100740002E003100340002010000050108010B01F8
:1007500005050505070508080808020202020A0A3D
:10076000080804040404010101010101010103035B
:10077000030303030303040707070C0C0C0C0C0C06
:100780000C0C0202020206060606060606060B0B03
:100790000B0B0B0B0B0B411111241FBECFEFD1E242
:1007A000DEBFCDBF00E00CBF14E0A0E0B2E0EAE5A0
:1007B000FAE200E00BBF02C007900D92A437B10728
:1007C000D9F725E0A4E7B4E001C01D92A73BB2072A
:1007D000E1F713E0CCECD3E000E006C0219701097B
:1007E000802FFE010E94E513CB3CD10780E0080773
:1007F000A9F70E940C120C942B150C940000FC011C
:1008000020812EBD0DB407FEFDCF2EB5FC01208347
:100810000895282F30E0F901E655F94F9491F90138
:10082000E051F94F4491205B384FF9012491222384
:1008300009F435C0992311F191509231F8F4E92F60
:10084000F0E08827E95DFB4F8F4F0C94E5135804C7
:100850005C043904500454043E045F0465046904D4
:100860006F04730477047D0481043E0485048B04C3
:100870008F04809180008F7780938000E22FF0E0DA
:10088000EE0FFF1FEA5CF84FA591B4918FB7F89473
:10089000EC91611148C040954E234C938FBF089551
:1008A000809180008F7DE8CF80918000877FE4CFAA
:1008B00084B58F7784BDE2CF84B58F7DFBCF8091E7
:1008C000B0008F778093B000D9CF8091B0008F7D3A
:1008D000F9CF809190008F7780939000CFCF809157
:1008E00090008F7DF9CF80919000877FF5CF809128
:1008F000A0008F778093A000C1CF8091A0008F7D52
:10090000F9CF8091A000877FF5CF809120018F776C
:1009100080932001B3CF809120018F7DF9CF80910A
:100920002001877FF5CF4E2BB8CFCF93DF9390E098
:10093000FC01E051F94F2491805B984FFC018491B8
:100940008823D1F090E0880F991FFC01E057F94F00
:10095000A591B491FC01EA5CF84FC591D491611165
:100960000EC09FB7F8948C91E22FE0958E238C9364
:100970002881E223E8839FBFDF91CF9108958FB74D
:10098000F894EC91E22BEC938FBFF6CF8230910577
:1009900038F0880F991F880F991F05970197F1F775
:1009A00008959F92AF92BF92CF92DF92EF92FF9203
:1009B0000F931F93CF93DF93EC015B01888599859B
:1009C00011E0892B09F010E8F501E0808E2D8123DC
:1009D000992493948111912C2C813D814E815F81CA
:1009E00060E271EA87E090E00E94C313022FF12CCD
:1009F000C22ED12C002319F0C6010E94C6048A859C
:100A0000982F977F09F04FC08D858F3F89F09E2DDD
:100A1000912381E009F480E0891551F0EF85F88990
:100A20008F899923D1F19081892B80839924939484
:100A3000E989FA898081998D892B8083002319F0B7
:100A4000C6010E94C6048E858F3F39F0EB89FC8970
:100A50008081988D892309F0F12AE989FA899081AA
:100A6000898D80958923808388859985892B09F0D4
:100A700073C0110F1111BECF8E858F3F11F0F5019C
:100A8000F082DF91CF911F910F91FF90EF90DF9057
:100A9000CF90BF90AF909F900895908180958923CB
:100AA0008083912CC5CF8C30A1F58D858F3F49F087
:100AB000EF85F8898F899E2D912339F19081892BBB
:100AC0008083E989FA899081898D80958923808343
:100AD000002319F0C6010E94C604E989FA898081C1
:100AE000998D892B8083002319F0C6010E94C604CA
:100AF0008E858F3F09F4B8CFEB89FC898081988D72
:100B0000892309F4B1CFF12AAFCF90818095892351
:100B1000D7CFE989FA898081998D892B8083002339
:100B200019F0C6010E94C6048D858F3F49F0EF85FC
:100B3000F8898F899E2D912359F09081892B80838C
:100B4000E989FA899081898D809589238083D0CF26
:100B5000908180958923F3CF16958CCFAF92BF9269
:100B6000CF92DF92EF92FF920F931F93CF93DF9379
:100B70001F92CDB7DEB78C015B016A01DC018D915C
:100B80009C911197892B39F01296ED91FC919081EF
:100B900081819CBD8DBDF80183858F3F19F060E098
:100BA0000E9409047501CA0CDB1CCE14DF04A9F0F5
:100BB000D7018D917D018983F80180819181892BF5
:100BC00029F0CE0101960E94FF03EFCFBE016F5FB7
:100BD0007F4FC8010E94D104E8CFD8011B968C91A9
:100BE0008F3F19F061E00E94090481E00F90DF91CE
:100BF000CF911F910F91FF90EF90DF90CF90BF901A
:100C0000AF9008953FB7F8948091EB049091EC0475
:100C1000A091ED04B091EE0426B5A89B05C02F3F2E
:100C200019F00196A11DB11D3FBFBA2FA92F982F12
:100C30008827BC01CD01620F711D811D911D42E00D
:100C4000660F771F881F991F4A95D1F708958F92D5
:100C50009F92AF92BF92CF92DF92EF92FF924B01A1
:100C60005C010E9402066B017C010E9402066C1965
:100C70007D098E099F09683E734081059105A8F39F
:100C800021E0821A9108A108B10888EEC80E83E01D
:100C9000D81EE11CF11C81149104A104B10429F7B0
:100CA000FF90EF90DF90CF90BF90AF909F908F908C
:100CB0000895AF92BF92CF92DF92EF92FF920F937F
:100CC0001F93CF93DF936C017B018B01040F151FE2
:100CD000EB015E01AE18BF08C017D10759F069914A
:100CE000D601ED91FC910190F081E02DC60119959E
:100CF000892B79F7C501DF91CF911F910F91FF905B
:100D0000EF90DF90CF90BF90AF900895FC01538D8E
:100D1000448D252F30E0842F90E0821B930B5417D5
:100D200010F0CF96089501970895FC01918D828D62
:100D3000981761F0A28DAE0FBF2FB11D5D968C91FB
:100D4000928D9F5F9F73928F90E008958FEF9FEF3A
:100D50000895FC01918D828D981731F0828DE80FF6
:100D6000F11D858D90E008958FEF9FEF0895FC01B0
:100D7000918D228D892F90E0805C9F4F821B91097D
:100D80008F73992708958FEE94E00E94B70621E0B3
:100D9000892B09F420E0822F0895FC01A48DA80F6F
:100DA000B92FB11DA35ABF4F2C91848D90E00196AD
:100DB0008F739927848FA689B7892C93A089B189CD
:100DC0008C91837080648C93938D848D981306C06E
:100DD0000288F389E02D80818F7D80830895EF92D2
:100DE000FF920F931F93CF93DF93EC0181E0888FE5
:100DF0009B8D8C8D98131AC0E889F989808185FFB5
:100E000015C09FB7F894EE89FF896083E889F98956
:100E100080818370806480839FBF81E090E0DF9158
:100E2000CF911F910F91FF90EF900895F62E0B8DAB
:100E300010E00F5F1F4F0F731127E02E8C8D8E1166
:100E40000CC00FB607FCFACFE889F989808185FFCD
:100E5000F5CFCE010E94CD06F1CFEB8DEC0FFD2F2B
:100E6000F11DE35AFF4FF0829FB7F8940B8FEA8988
:100E7000FB8980818062CFCFCF93DF93EC01888D97
:100E80008823B9F0AA89BB89E889F9898C9185FD05
:100E900003C0808186FD0DC00FB607FCF7CF8C9193
:100EA00085FFF2CF808185FFEDCFCE010E94CD0678
:100EB000E9CFDF91CF91089580E090E0892B29F070
:100EC0000E94C30681110E94000080E090E0892BFF
:100ED00049F080E090E0892B29F00E940000811108
:100EE0000E94000080E090E0892B49F080E090E0D3
:100EF000892B29F00E94000081110E94000080E0EF
:100F000090E0892B49F080E090E0892B29F00E9445
:100F1000000081110C94000008950F931F93CF934C
:100F2000DF931F92CDB7DEB78C01698360E0FC01CF
:100F3000868D0E94090441E050E0BE016F5F7F4F43
:100F4000F801838D948D0E94AE050F90DF91CF91B3
:100F50001F910F910895CF93C82F87FDCFE7C093BE
:100F6000AB0561E28CE895E00E948D076C2F60680C
:100F70008CE895E00E948D0760E28CE895E0CF91C7
:100F80000C948D07CF938091A90587FD13C061E074
:100F90000E94950460E08091A9050E94090461E027
:100FA00070E080E090E00E94270661E08091A90552
:100FB0000E940904C091AC05C83008F0C7E0C09396
:100FC000AC0561E28CE895E00E948D076C2F6061B2
:100FD0008CE895E00E948D0760E28CE895E00E9425
:100FE0008D078091AB050E94AB0760E28CE895E02D
:100FF0000E948D076CE08CE895E0CF910C948D07F2
:10100000FF920F931F93CF93DF939091AD05992398
:1010100039F08091AE058F5F8917E8F58093AE05B2
:10102000D091B105D695D695D69584E5D89F800107
:1010300011248091B2058695869586958D1780F14D
:101040006D2F60648CE895E00E948D07C091AF051C
:10105000F090B0056C2F60688CE895E00E948D07D9
:1010600061E08091AA050E9409044F2D50E06C2F89
:1010700070E0461B570B4F5F5F4F600F711F605052
:101080007E4F8091A7059091A8050E94AE05DF5F75
:101090000C5A1F4FCECF1092AE050E94C207C0CF90
:1010A00060E48CE895E00E948D0783E58093AF05AE
:1010B0001092B0058FE28093B1051092B205DF91D6
:1010C000CF911F910F91FF9008951F93CF93DF93BE
:1010D000EC01162F60E20E948D076CE011116DE0AB
:1010E000CE01DF91CF911F910C948D07FC0177FD0C
:1010F00055C080859185681779070CF04FC057FD62
:101100004DC082859385481759070CF047C08689E2
:10111000823009F444C0833009F44EC0813031F488
:101120008FE290E0861B970BBA01AC01842FA62FAB
:1011300093A1691708F4962F93A394A19A1708F422
:101140009A2F94A395A1891708F4982F95A396A197
:10115000981708F4982F96A3CA0157FD0796E3E065
:1011600095958795EA95E1F7A4E5A89FF001A99FD9
:10117000F00D1124E60FF71FE050FE4FCA0168E0A2
:1011800070E00E94AF1341E050E001C0440F8A9527
:10119000EAF78081232BB9F0842B8083089583E5BF
:1011A00090E0DC01A61BB70BBD018FE290E0DC01F3
:1011B000A41BB50BAD01BACF83E590E0841B950B62
:1011C000AB01BC01B3CF40958423E7CF20919B04B2
:1011D000260F3327331F21323105ECF42091BF0451
:1011E000FC0190E080E0243069F082E00895A09155
:1011F0009B042191AC0145585B4FA40FB52FB11D45
:101200002C930196861798F380919B04680F609346
:101210009B0480E0089581E0089508958FEF9FEF8B
:1012200008958FEF9FEF08958091740490E0919559
:10123000819591090895CF93DF93CB01EA01642F43
:101240000E94E608CE01DF91CF910895CF93DF93FE
:101250001F92CDB7DEB7698361E0CE0101960E948F
:10126000E60881E090E00F90DF91CF910895089516
:10127000FC016370668B84819581268137816130A2
:1012800039F0633029F0918780873387228708956A
:10129000318720879387828708952F923F924F92BC
:1012A0005F926F927F928F929F92AF92BF92CF92F6
:1012B000DF92EF92FF920F931F93CF93DF93CDB7FF
:1012C000DEB76A970FB6F894DEBF0FBECDBF9A8F18
:1012D000898F7A8369834A01D22E18870F83370159
:1012E000BC2CDC0159962D913C915A972115310562
:1012F00009F015C118968D919C9119976817790777
:101300000CF0D7C11A968D919C91481759070CF093
:10131000D0C14C2C512CB6E0CB9E600D711D112418
:101320007C876B87161617060CF0C3C1EA2DF0E018
:10133000FA87E98793E0EE0FFF1F9A95E1F7F88BA4
:10134000EF87CF01840F951F181619060CF0B1C155
:10135000A98DBA8D58968C91811104C0BFEABD1534
:1013600008F4D394A98DBA8DED91FC911197028464
:10137000F385E02DCD011995B5E0DB9EC001112468
:10138000E981FA81FC83EB83312C212C9C012057CD
:101390003E4F388F2F8B4A2D50E05E8B4D8BEF895F
:1013A000F88DE20DF31D44919E828D82D12CC12CCB
:1013B00069817A81620D731D7A8B698B842F90E02D
:1013C0009C8B8B8BE98DFA8DA081B18140FF82C00F
:1013D000F1E0BF126FC0AF126DC01C96ED91FC9191
:1013E0002F813885A4014C0D5D1D69897A89898D0D
:1013F0009A8D1995EB89FC89F595E7954E2F5FEF4E
:10140000C51AD50A6D817E818D899E89680F791FE5
:101410007E836D8398E0C916D10481F6AFEF2A1A56
:101420003A0AEB81FC81E40DF51DFC83EB83F5E0CA
:101430002F16310409F0B3CF2F81388526153705D3
:10144000B9F0A98DBA8DED91FC91B1E0BB1257C0F6
:10145000AB1255C069817A816B5F7F4F0088F1893B
:10146000E02D830128E030E0A401898D9A8D199543
:10147000A98DBA8DED91FC9111970688F789E02D21
:10148000CD016A960FB6F894DEBF0FBECDBFDF91D7
:10149000CF911F910F91FF90EF90DF90CF90BF9071
:1014A000AF909F908F907F906F905F904F903F9004
:1014B0002F9019941E96ED91FC91EF80F884098588
:1014C0001A8592014D815E816B817C81898D9A8D17
:1014D000199590CF2F8138852615370509F48ACFC5
:1014E00031E0B31207C0A31205C01C96ED91FC9128
:1014F000930178CF1E96ED91FC917301E0CF6B853F
:101500007C85641975090684F785E02D73010F85C4
:1015100018899201A401898D9A8D1995A9CFF90195
:1015200034969491329745915491D91AB7E0DB9E45
:10153000400D511D1124F901259134913C8B2B8BC9
:10154000FA0125903490FA013296749031963491D4
:10155000398B329664903196449041E04C1518F0E6
:101560004A1508F07FC0662D062C000C770B7C8393
:101570006B83842D042C000C990B9E838D83A98D85
:10158000BA8DED91FC9111970284F385E02DCD0188
:101590001995512CD12CC12CEA2DF0E0FA87E9875E
:1015A0002B2D30E03C872B87A401440D511D47FCB7
:1015B0005A95588F4F8B69817A81660D711D67FC32
:1015C0007A957E876D877989C71608F051CF2C2DC3
:1015D00030E04D815E81420F531FA985BA854A9F35
:1015E000C0014B9F900D5A9F900D1124FC01E80DF6
:1015F000F91DF88BEF87852D612C4F89588D420F8F
:10160000531F5E8B4D8B671408F050C044244394E5
:10161000480E877041F4C1010196EB89FC89E20D07
:10162000F31DD4901C01D7FE19C0A98DBA8DED9180
:10163000FC91662D70E0B1E0BB1219C0AB1217C06F
:101640002D853E85620F731F0484F585E02D2F8163
:1016500038854D895E89898D9A8D1995DD0C639445
:10166000842DD1CF1E821D821C821B8288CF4B818C
:101670005C81640F751FAB85BC856A9FC0016B9F41
:10168000900D7A9F900D112469817A81680F791FDE
:101690000684F785E02DEF80F88409851A859D0181
:1016A0004F855889898D9A8D1995D8CF570CC39439
:1016B0008ACF6A960FB6F894DEBF0FBECDBFDF911A
:1016C000CF911F910F91FF90EF90DF90CF90BF903F
:1016D000AF909F908F907F906F905F904F903F90D2
:1016E0002F9008958F929F92AF92CF92EF92FF9298
:1016F0000F931F93CF93DF93EC01262F898D9A8D43
:10170000009709F051C06A30D1F41D861C868D897E
:1017100048E0849F900111248E859F85820F931F3E
:101720009F878E8781E090E0DF91CF911F910F918D
:10173000FF90EF90CF90AF909F908F9008956D3075
:1017400089F3CC88AD888F898823C1F08C859D85ED
:1017500036E0C39E800D911D112448855985481798
:10176000590764F44E855F851D861C8638E0A39E6C
:10177000C0011124840F951F9F878E87EA88FB88FC
:10178000088919894E855F856C857D85CE010E940B
:101790004D092C898C859D8546E0249F800D911DE7
:1017A00011249D878C87BECF6A3069F41D861C8604
:1017B000FC013896E4912D898E859F85E29F800DEE
:1017C000911D1124ADCF6D3009F4ACCFFC013496DE
:1017D0003491631708F4A6CF3296E491E61708F423
:1017E000A1CFFC01329685909490462F431B342F55
:1017F00047E0349F800C911C1124F40132963491FF
:101800003196E4913323A9F1EE2399F1CC88F401C8
:101810003596E491AD884F89442301F10E2E000CDA
:10182000FF0BE30FF11DCE9EA001CF9E500D1124A2
:101830006C857D85460F571F688579856417750708
:101840006CF44E855F851D861C86FC013896E491FC
:10185000AE9E400D511D11245F874E87EA88FB889C
:10186000088919894E855F856C857D85CE010E942A
:101870004D09F4013496E4912C898C859D85E29F75
:10188000800D911D11248DCF6F927F928F929F9228
:10189000AF92BF92CF92DF92EF92FF920F931F937E
:1018A000CF93DF93EC016B015A0139014801E881C4
:1018B000F9810284F385E02D1995E881F981028888
:1018C000F389E02D87019301A501B601CE01199599
:1018D000A501480D591D41505109E881F98102883F
:1018E000F389E02D9301B601CE011995E881F981C4
:1018F0000088F189E02D9401A501B601CE0119956A
:10190000C60CD71CB60161507109E881F9810088C5
:10191000F189E02D9401A501CE011995E881F981A5
:101920000688F789E02DCE01DF91CF911F910F91AD
:10193000FF90EF90DF90CF90BF90AF909F908F90EF
:101940007F906F9019946F927F928F929F92AF9237
:10195000BF92CF92DF92EF92FF920F931F93CF939C
:10196000DF935C01EB016A01490138018701DC0169
:10197000ED91FC916217730719F5641675062CF04A
:10198000962D872D3A01C92ED82E96012619370992
:101990002F5F3F4F048CF58DE02DA301BE01C501E3
:1019A0001995DF91CF911F910F91FF90EF90DF90EC
:1019B000CF90BF90AF909F908F907F906F90089541
:1019C0004615570591F42617370724F0892D4B014A
:1019D000C22FD82F9E01281939092F5F3F4F068C3F
:1019E000F78DE02DA601B401DACF0284F385E02D56
:1019F0001995D501ED91FC910488F589E02D8301BD
:101A00009401A601BE01C5011995D501ED91FC9186
:101A10000688F789E02DC501DF91CF911F910F91C5
:101A2000FF90EF90DF90CF90BF90AF909F908F90FE
:101A30007F906F901994EF92FF920F931F93DC01A8
:101A40001A960D911C911B9718962D913C91199700
:101A5000ED91FC9100A0F1A1E02D7B0150E040E070
:101A600070E060E019951F910F91FF90EF9008953D
:101A70004F925F926F927F928F929F92AF92BF929E
:101A8000CF92DF92EF92FF920F931F93CF93DF934A
:101A90006C012B015A0139014801DC01ED91FC91E7
:101AA0000284F385E02D1995E201640C751CD601C2
:101AB000ED91FC91C615D7055CF40088F189E02D05
:101AC00087019401A501BE01C60119952196EFCFAA
:101AD0000688F789E02DC601DF91CF911F910F9104
:101AE000FF90EF90DF90CF90BF90AF909F908F903E
:101AF0007F906F905F904F9019948F929F92AF92CA
:101B0000BF92CF92DF92EF92FF920F931F93CF93EA
:101B1000DF93EC015B014A016901E881F9810284EC
:101B2000F385E02D199595012C0D3D1D21503109AE
:101B3000E881F9810488F589E02D78018401A40108
:101B4000B501CE011995E881F9810688F789E02D64
:101B5000CE01DF91CF911F910F91FF90EF90DF9019
:101B6000CF90BF90AF909F908F9019948F929F923B
:101B7000AF92BF92CF92DF92EF92FF920F931F939B
:101B8000CF93DF93EC015B014A0169017801E881A1
:101B9000F9810284F385E02D1995C80CD91C8601C2
:101BA00001501109E881F9810488F589E02D95013A
:101BB000A401B501CE011995E881F9810688F7895C
:101BC000E02DCE01DF91CF911F910F91FF90EF900B
:101BD000DF90CF90BF90AF909F908F901994EF922D
:101BE000FF920F931F93DC01ED91FC9100A0F1A1F6
:101BF000E02D19951F910F91FF90EF9008950F938D
:101C00001F93DC01ED91FC91068CF78DE02D199569
:101C10001F910F9108950F931F93DC01ED91FC919B
:101C2000048CF58DE02D19951F910F910895DC011D
:101C3000ED91FC910084F185E02D19942F923F9253
:101C40004F925F926F927F928F929F92AF92BF92CC
:101C5000CF92DF92EF92FF920F931F93CF93DF9378
:101C600000D000D0CDB7DEB73C016A013E832D83A2
:101C7000FC82EB825801A41AB50AB7FE03C0B194E6
:101C8000A194B1088D809E80861A970A97FE03C0A2
:101C90009194819491088A149B045CF0902F812F79
:101CA0000D811E819D838E839C2D8D2D6B01692F4F
:101CB000782F0C151D055CF09D818E817E836D83D0
:101CC000692F782F902F812F8601C92ED82E1601CB
:101CD000201A310A2B012D813E81421A530A57FEE8
:101CE00003C0519441945108710137FE03C03FEF86
:101CF000E31AF30AF594E7948D819E81861797077E
:101D00005CF5A1E0B0E0BA83A983C016D1064CF11E
:101D1000D301ED91FC910484F585E02D2B813C816C
:101D2000A8016D817E818A149B041CF04D815E8127
:101D3000B801C3011995E418F508F7FE0AC02D8112
:101D40003E8189819A81280F391F3E832D83E20CC1
:101D5000F31C0F5F1F4FD9CF2FEF3FEF3A8329833B
:101D6000D4CF26960FB6F894DEBF0FBECDBFDF915D
:101D7000CF911F910F91FF90EF90DF90CF90BF9088
:101D8000AF909F908F907F906F905F904F903F901B
:101D90002F900895089590E080E00895E0E0F2E04B
:101DA00088EF91E0DF019C011D9221503040E1F766
:101DB0001092AF058091B005833508F483E58093D8
:101DC000B0051092B1058091B2058F3208F48FE210
:101DD0008093B205109299051092980510929B0578
:101DE00010929A050895FC0101900020E9F73197BF
:101DF000AF01481B590BBC018CE895E00C945906C7
:101E00000E9426151F93CF93DF9385ED8093BC002E
:101E10008091770490917804A0917904B0917A042C
:101E20000796A11DB11D23E0B695A79597958795B7
:101E30002A95D1F72091BC0024FD03C01092BF0465
:101E400052C0409177045091780460917904709168
:101E50007A04452B462B472B69F30097A105B10562
:101E600041F02AE22A95F1F700C00197A109B109D2
:101E7000E1CF80917604C1E0C0937504882399F185
:101E8000D091B8001091BA008091BC008A7B8093F9
:101E9000BC0060E084E10E94090460E085E10E94EA
:101EA00009041092BF04C093C1041092C00461E001
:101EB00084E10E94090461E085E10E9409048091A7
:101EC000B9008E7F8093B9008091B9008D7F809397
:101ED000B90088E48093B80085E48093BC00109337
:101EE000BA00D093B800DF91CF911F9108951F924F
:101EF0000F920FB60F9211242F933F938F939F93BE
:101F0000AF93BF938091E7049091E804A091E90416
:101F1000B091EA043091E60423E0230F2D3758F501
:101F20000196A11DB11D2093E6048093E7049093D0
:101F3000E804A093E904B093EA048091EB04909143
:101F4000EC04A091ED04B091EE040196A11DB11D29
:101F50008093EB049093EC04A093ED04B093EE0413
:101F6000BF91AF919F918F913F912F910F900FBE95
:101F70000F901F90189526E8230F0296A11DB11D02
:101F8000D2CF1F920F920FB60F9211240BB60F9261
:101F90002F933F934F935F936F937F938F939F9371
:101FA000AF93BF93EF93FF938FEE94E00E94CD0623
:101FB000FF91EF91BF91AF919F918F917F916F9121
:101FC0005F914F913F912F910F900BBE0F900FBEDD
:101FD0000F901F9018951F920F920FB60F92112419
:101FE0000BB60F922F938F939F93EF93FF93E091F4
:101FF000FF04F09100058081E0910505F091060550
:1020000082FD1DC09081809108058F5F8F732091A4
:102010000905821741F0E0910805F0E0E151FB4F1E
:10202000958F80930805FF91EF919F918F912F914C
:102030000F900BBE0F900FBE0F901F9018958081D0
:10204000F2CF1F920F920FB60F9211240BB60F9280
:102050002F933F934F935F936F937F938F939F93B0
:10206000AF93BF93EF93FF938091B900887F803641
:1020700009F44DC008F040C0883209F4A7C028F523
:10208000803109F49BC0C8F4882309F4F7C0883074
:1020900009F494C0FF91EF91BF91AF919F918F91FF
:1020A0007F916F915F914F913F912F910F900BBE58
:1020B0000F900FBE0F901F901895883109F486C0BD
:1020C000803241F78093BE0414C0803409F49BC071
:1020D00040F48033B9F38833E9F68093BE0485EC8D
:1020E000AEC0803509F483C0883509F494C08834C3
:1020F00089F60E94020FCECF883909F48AC038F5DC
:10210000883729F050F4883611F0803719F683E0CB
:102110008093BF041092BD0455C0883809F479C07B
:10212000803919F0803809F0B5CF8091BD04803234
:1021300008F06FC0E091BD0481E08E0F8093BD0474
:102140008091BB00F0E0E356FB4F80833BC0803BB7
:1021500039F0D0F4803A09F477C0883A09F09ACF80
:1021600084E08093BF0410929C0410929B04F0E0E2
:10217000E0E0199580919B0481110FC081E080936C
:102180009B0410927B0409C0803C09F4A8CF883CD2
:1021900009F4A5CF883B09F07DCFE0919C0481E054
:1021A0008E0F80939C04F0E0E558FB4F8081809374
:1021B000BB0090919C0480919B0429C08091E40411
:1021C0008093BB0085EC8093BC0064CF9091E304C6
:1021D0008091E204981758F5E091E30481E08E0FB6
:1021E0008093E304F0E0EE53FB4F8081E9CFE09170
:1021F000E30481E08E0F8093E3048091BB00F0E064
:10220000EE53FB4F80839091E3048091E204981792
:10221000C8F285E8D8CFE091E30481E08E0F809387
:10222000E3048091BB00F0E0EE53FB4F808380918C
:10223000C10481115ECF81E08093C00484EA809361
:10224000BC001092BF0426CF85EC8093BC00109296
:10225000BF048091BD04803230F4E091BD04F0E011
:10226000E356FB4F10826091BD0470E08DE994E06D
:10227000F0E0E0E019951092BD040CCF1092BE047E
:1022800038CFCF93DF93EFEEF4E01382128288EE23
:1022900093E0A0E0B0E084839583A683B78382E0D7
:1022A00094E09183808385EC90E09587848784EC2B
:1022B00090E09787868780EC90E0918B808B81EC13
:1022C00090E0938B828B82EC90E0958B848B86ECF4
:1022D00090E0978B868B118E128E138E148ECCE825
:1022E000D5E01B821A8224E530E03D832C8380E315
:1022F00090E09F838E83398728879B878A871E8AF1
:102300001D861C861F861E8681E08D8B8C8B2FEF91
:102310003FEF3B8B2A8B398B288B8F8B188E1A8E35
:10232000198E84E194E0998388838CE190E00E9487
:102330000114DC0111961C921E9213961C921E929F
:10234000129784E01B968C931B9784E31C968C93C6
:102350001C978FEF1E968C931E9783E31D968C938C
:102360001D97E4E5F7E0E491F0E0EE0FFF1FEA5C73
:10237000F84F8591949156969C938E935597E4EFE0
:10238000F6E0E4915A96EC935A97E3E8F7E0E4918B
:10239000F0E0EE0FFF1FEA5CF84F859194915096A4
:1023A0009C938E931F97E3E2F7E0E4915796EC93AA
:1023B0005797E4E8F7E0E491F0E0EE0FFF1FEA5CE6
:1023C000F84F8591949152969C938E935197E4E2A5
:1023D000F7E0E4915996EC93599740E059E06DE3AA
:1023E00070E014964D935D936D937C93179781E005
:1023F00090E019969C938E9318971A961C921A97B0
:102400005B961C925B97BC8FAB8F85E08E8F83E0D1
:102410008D8FDF91CF910895789484B5826084BDCB
:1024200084B5816084BD85B5826085BD85B58160D8
:1024300085BD80916E00816080936E001092810056
:102440008091810082608093810080918100816011
:1024500080938100809180008160809380008091D2
:10246000B10084608093B1008091B000816080935E
:10247000B0008091910082608093910080919100E2
:1024800081608093910080919000816080939000A2
:102490008091A10082608093A1008091A100816061
:1024A0008093A1008091A00081608093A000809122
:1024B00021018260809321018091210181608093BC
:1024C00021018091200181608093200180917A0018
:1024D000846080937A0080917A00826080937A0091
:1024E00080917A00816080937A0080917A00806880
:1024F00080937A001092C100E091FF04F0910005F2
:1025000082E08083E091FB04F091FC041082E09172
:10251000FD04F091FE0480E1808310920705E091B4
:102520000305F091040586E08083E0910105F091B8
:102530000205808180618083E0910105F0910205B0
:10254000808188608083E0910105F091020580819F
:1025500080688083E0910105F091020580818F7D84
:102560008083C091A705D091A8058B858F3F39F056
:1025700061E00E94950461E08B850E9409048881D6
:102580009981892B09F4CDC01FB7F8948091E50497
:10259000811127C0E5E8F7E08491E5E2F7E0949146
:1025A000E82FF0E0EE0FFF1FE057F94FA591B4912F
:1025B000EC91E92321F461E085E30E94090461E0E4
:1025C00085E30E9495048CB580618CBD8CB58064D8
:1025D0008CBD61E084E30E94950461E083E30E9486
:1025E00095048091E5048F5F8093E5041FBF81E02F
:1025F0008B8F61E08091AA050E9495048091A905C6
:1026000087FD03C061E00E94950484E08093AC05DF
:1026100088E28093AB051092AD051092AE050E9442
:10262000C2071092AF058091B005833508F483E5A9
:102630008093B0051092B1058091B2058F3208F4F5
:102640008FE28093B2050E94000887E30E94AB07E7
:1026500068EE73E080E090E00E9427060E94CE0EB4
:102660000E94000868EE73E080E090E00E94270678
:1026700011E0C1E0D0E08AE0A82EB12C94E1C92E8F
:10268000D12C2EE1E22EF12C0E94CE0E1093A0054B
:102690001093A105D0939F05C0939E05D0939D05EF
:1026A000C0939C05109299051092980510929B0575
:1026B00010929A058CE394E00E94F30E88E494E073
:1026C0000E94F30E1092990510929805B0929B0506
:1026D000A0929A058BE494E00E94F30E1092990563
:1026E00010929805D0929B05C0929A0587E594E0D8
:1026F0000E94F30E1092990510929805F0929B0596
:10270000E0929A0585E694E00E94F30E0E9400088C
:1027100060ED77E080E090E00E9427060E945C0771
:10272000B3CF61E08C850E9495048A858B7F60E041
:1027300009F061E08C850E9409048D858F3F39F096
:1027400061E00E94950461E08D850E9409048E85F8
:102750008F3F09F44CCF60E00E94950448CF97FB6F
:10276000072E16F4009407D077FD09D00E94ED13D0
:1027700007FC05D03EF4909581959F4F0895709584
:1027800061957F4F0895A1E21A2EAA1BBB1BFD0184
:102790000DC0AA1FBB1FEE1FFF1FA217B307E40740
:1027A000F50720F0A21BB30BE40BF50B661F771F98
:1027B000881F991F1A9469F7609570958095909578
:1027C0009B01AC01BD01CF010895EE0FFF1F881FD3
:1027D0008BBF0790F691E02D1994AA1BBB1B51E10A
:1027E00007C0AA1FBB1FA617B70710F0A61BB70B81
:1027F000881F991F5A95A9F780959095BC01CD0126
:1028000008950F931F93CF93DF938230910510F4B7
:1028100082E090E0E091B505F091B60530E020E06F
:10282000B0E0A0E0309799F42115310509F44AC0D1
:10283000281B390B24303105D8F58A819B8161151D
:10284000710589F1FB0193838283FE0111C04081F0
:1028500051810281138148175907E0F04817590741
:1028600099F4109761F012960C93129713961C939B
:102870003296CF01DF91CF911F910F910895009370
:10288000B5051093B605F4CF2115310551F0421767
:10289000530738F0A901DB019A01BD01DF01F801FE
:1028A000C1CFEF01F9CF9093B6058093B505CDCF99
:1028B000FE01E20FF31F8193919322503109398376
:1028C0002883D7CF2091B3053091B405232B41F451
:1028D0002091FA033091FB033093B4052093B305A4
:1028E0002091F8033091F9032115310541F42DB7FA
:1028F0003EB74091FC035091FD03241B350BE09142
:10290000B305F091B405E217F307A0F42E1B3F0BBB
:102910002817390778F0AC014E5F5F4F2417350751
:1029200048F04E0F5F1F5093B4054093B305819359
:1029300091939FCFF0E0E0E09CCFCF93DF9300979F
:10294000E9F0FC01329713821282A091B505B09193
:10295000B605ED0130E020E01097A1F4208131812F
:10296000820F931F2091B3053091B40528173907C2
:1029700009F061C0F093B405E093B305DF91CF9106
:102980000895EA01CE17DF07E8F54A815B819E01D1
:1029900041155105B1F7E901FB83EA83499159914A
:1029A000C40FD51FEC17FD0761F480819181029659
:1029B000840F951FE90199838883828193819B838A
:1029C0008A83F0E0E0E012968D919C911397009736
:1029D000B9F52D913C911197CD010296820F931F6D
:1029E0002091B3053091B4052817390739F630978F
:1029F00051F51092B6051092B505B093B405A093A9
:102A0000B305BCCFD383C28340815181840F951F0E
:102A1000C817D90761F44E5F5F4F88819981480FCD
:102A2000591F518340838A819B819383828321151F
:102A3000310509F0B0CFF093B605E093B5059ECF10
:102A4000FD01DC01C0CF13821282D7CF81E090E07C
:0A2A5000F8940C942B15F894FFCFB6
:102A5A00000000000000000000000000000000006C
:102A6A00000000000000000000000000000000005C
:102A7A00000000000000C0E0F0F8FCFCFEFFFCE0F3
:102A8A00000000000000000000000000000000003C
:102A9A00000000000000000000000000000000002C
:102AAA00000000000000000000000000000000001C
:102ABA000000000000F8F8F8F8F8F8F8F8F8F8F864
:102ACA00F8F0F0E0E0C080C0FCFFFFFFFF7F3F7F2F
:102ADA00FFFFFFFFFF0000000000000000000000F1
:102AEA0000000000000000000000000000000000DC
:102AFA0000000000000000000000000000000000CC
:102B0A00000000000000000000000F1F3F7FFFFFD1
:102B1A00FFFFFFFFFFFFE7C7C7878F9F9FFFFFFFEB
:102B2A00C1C0E0FCFFFFFFFFFFFCFCFCFCFEFEFE59
:102B3A00FCFCF8F8F0E0C0C0000000000000000053
:102B4A00000000000000000000000000000000007B
:102B5A00000000000000000000000000000000006B
:102B6A000080C0E0F1FBFFFFFFFFFF7F1F0F0F8711
:102B7A00E7FFFFFF1F1F3FF9F8F8F8F8F8F8FDFF25
:102B8A00FFFFFFFFFFFFFFFF7F3F0F07010000006E
:102B9A00000000000000000000000000000000002B
:102BAA00000000000000000000000000000000001B
:102BBA00000000F0FEFFFFFFFFFFFFFFFFFFFFFE29
:102BCA007E3F3F0F1FFFFFFFFCF0E0F1FFFFFFFF1B
:102BDA00FFFCF001010101010101010000000000F8
:102BEA0000000000000000000000000000000000DB
:102BFA0000000000000000000000000000000000CB
:102C0A0000000000000000030303030303030301A1
:102C1A0001010100000000000000030F1F3F7F7F39
:102C2A00FFFFFFFF7F7F1F0300000000000000007E
:102C3A00000000000000000000000000000000008A
:102C4A0000000000000000000000B705800000003E
:102C5A000000EF06590686063C07B7069506A90640
:102C6A0000000000720B5906CB0ECA0E76080D0939
:102C7A00170EEF0D0B0EFF0D1E0E0D093809650814
:102C8A00B60D7D0D380D1B0DA30C440C464C554F4B
:102C9A0052494D4554524F000D0A0056736574202F
:102CAA00322E3030205600496C65643A20362E3276
:102CBA0035206D410053656E733A415337333431D1
:042CCA00204F4B004C
:00000001FF
